:020000041000EA
:1000000000B5324B212058609868022188439860DF
:10001000D860186158612E4B002199600221596106
:100020000121F02299502B49196001219960352056
:1000300000F044F80222904214D00621196600F024
:1000400034F8196E01211966002018661A6600F04E
:100050002CF8196E196E196E052000F02FF8012189
:100060000842F9D1002199601B49196000215960AB
:100070001A491B48016001219960EB211966A021F2
:10008000196600F012F800219960164914480160C1
:100090000121996001BC002800D000471248134993
:1000A000086003C880F30888084703B5996A0420EC
:1000B0000142FBD001200142F8D103BD02B5186610
:1000C0001866FFF7F2FF186E186E02BD00000240BE
:1000D000000000180000070000035F00212200005C
:1000E000F4000018222000A00001001008ED00E03C
:1000F00000000000000000000000000074B24E7A12
:1001000000200420F7010010C3010010C5010010F9
:10011000C1010010C1010010C1010010C101001097
:10012000C1010010C1010010C1010010C701001081
:10013000C1010010C1010010C9010010CB01001065
:10014000CD010010CD010010CD010010CD01001037
:10015000CD010010CD010010CD010010CD01001027
:10016000CD010010CD010010CD010010CD01001017
:10017000CD010010CD010010CD010010CD01001007
:10018000CD010010CD010010CD010010CD010010F7
:10019000CD010010CD010010CD010010CD010010E7
:1001A000CD010010CD010010CD010010CD010010D7
:1001B000CD010010CD010010CD010010CD010010C7
:1001C00000BE00BE00BE00BE00BE00BE00F04BF888
:1001D000103800BEF2EB8871C89F0010F09F00102D
:1001E0003402001090A31AE700202149086006C8D5
:1001F00081F3088810471F48006800282FD10DA4FC
:100200000ECC002902D000F012F8F9E71A491B4A77
:10021000002000E001C19142FCD1194988471949E9
:1002200088471949884700BEFDE701C901C29A42C3
:10023000FBD37047F09F0010C0000020200C00206E
:100240005CAB001000000420000004205CAB001038
:1002500000100420001004200000000070470B482C
:1002600003F010FA0047EFF30580C0B270470000BA
:1002700008ED00E0000000D0300C00204C210020F0
:10028000852000102D060010412000105756000058
:1002900006005250ABB36053049700100600525052
:1002A000861C030214970010060052505422A29D8F
:1002B0003097001005005250DE65F4685CAB00100A
:1002C000F8B5C04610B5064C2378002B07D1054B76
:1002D000002B02D0044800E000BF0123237010BDB2
:1002E000300D00200000000048840010044B10B5C1
:1002F000002B03D00349044800E000BF10BDC046F6
:1003000000000000340D00204884001070B5050086
:10031000002404E00023002B14D00134E4B2052CA7
:1003200029D82B1999780029F7D00023052BF1D86B
:10033000144AD2189278914202D00133DBB2F5E729
:100340000123E8E72A78223313405A1E9341DBB297
:1003500049000D4A5118CE5C300004F017FA0D2EFA
:1003600005D00A4B1B68986807F090FCD5E70A2077
:1003700004F00CFAF5E708222900024804F0DAF844
:1003800070BDC046D41E0020CC850010C0030020E4
:1003900070470000F0B587B005000C000092019393
:1003A0000A000100194804F07BFA03AF184B3A0029
:1003B00043CB43C22100280006F0A2FC06008300C4
:1003C000D959144804F06CFA002E07D021002800F7
:1003D00006F0A6FC002814D007B0F0BD0E4EE700D2
:1003E0003819400030180230019B009A042106F0B1
:1003F00027FE01003B195B009855084804F050FAAD
:10040000E4E7074804F01AFAE6E7C04664840010FF
:10041000C085001098840010501E0020B884001081
:10042000D084001010B50A000100024804F038FA28
:1004300010BDC046FC84001010B513000A00010076
:10044000014804F02DFA10BD3485001010B50400E9
:100450000378002B0BD0DA0712D54C215A0711D59F
:100460004D229B0710D55223084804F019FA0322A5
:10047000A2560221615601202056FFF7DDFF10BD74
:100480002D21EBE72D22ECE72D23EDE7448500102D
:1004900070B516001C4ACB0058184000855C131834
:1004A000981C012D0BD032780023AB420CD299005E
:1004B0004418415C914208D00133DBB2F5E79B78E8
:1004C000002BF0D1040001E000240136002C03D001
:1004D0006388012B04D070BD0C4804F0AFF9FAE733
:1004E0006378022B08D0062BF5D1094804F0A6F951
:1004F0003000FFF70BFFEEE7064804F09FF93000ED
:10050000FFF7A4FFE7E7C046501E0020508500100B
:1005100084850010A4850010F8B504000D001700B4
:100520001E0006F0EDFB012808D0022810D0330091
:100530003A0029002000FFF7ABFF02E03800FFF788
:10054000E5FE2900200006F0EBFB002804D0F8BDF2
:100550003800FFF77BFFF4E7014804F06FF9F6E796
:10056000D084001010B504000100054804F098F98B
:10057000012340220349200006F082F910BDC04645
:10058000CC860010DC1F002010B50100014804F0EB
:1005900087F910BDF486001070B50400074D2800DF
:1005A00004F07EF940220021280003F0BDFF012362
:1005B00040222900200006F063F970BDDC1F0020F6
:1005C00010B501F03DF900290DDB12D0FA2292009E
:1005D000002303F0EDF8104B1B68C01AFA229200BA
:1005E00090420BD210BD0D4B0D4A3F210D4801F03A
:1005F0002BFDFA21890003F099F8ECE79446634457
:10060000054A1360084C207804F024FA237801226C
:1006100053402370E6E7C0462421002020870010C5
:10062000A88700103C8700104721002010B504F077
:10063000F9F9064804F002F907F0E8F805F0FEFAC7
:10064000FFF7BEFFFFF7A4FEF8E7C046848700105F
:1006500070B504000D00137B002B26D115490B004B
:1006600020330A0010320831134804F019F9697B6D
:10067000200006F09FFD0600697B200006F0A8FD23
:10068000040001008020400303F050F80100300016
:1006900003F04CF80100094804F002F9220031008F
:1006A000074804F0FDF8012070BD064804F0C6F8C4
:1006B0000020F9E7A01E0020D0870010E887001076
:1006C000FC870010C087001010B50400044804F037
:1006D000B5F8044B044A0021200006F0F9FD10BDD6
:1006E0002488001051060010A01E002010B50248FA
:1006F00004F0A4F810BDC0464888001010B583006F
:10070000084A944663441C6840226240C024144056
:100710008022520113431C60C000034B9C4660447E
:10072000416010BD04C001400040014010B50123EC
:100730008340D0221206936293610521FFF7DEFF0A
:1007400010BD0000EFF3108072B6034B1B68002B46
:10075000FBD0BFF35F8F70472C0100D0BFF35F8FDA
:10076000024B00221A6080F3108870472C0100D0E1
:10077000F8B506000C001500FFF7E4FFE308F718D2
:10078000F15C07222240012393400B4205D1DBB2EA
:100790000B433B70FFF7E2FFF8BD2100280001F09A
:1007A000EDFCF0B583B00600019114001F00FFF7C7
:1007B000C9FF00E00134BC420CD8E308F518F35C33
:1007C0000721214001228A401A42F3D1D2B21A43B2
:1007D0002A7001E001246442FFF7C0FF002C02DB15
:1007E000200003B0F0BD019B002BF9D0089801F068
:1007F000C5FC0000034B1B6802201840431E9841B3
:10080000C0B2704700C00640002307E0054A9A18AE
:100810009200BFF35F8F0021116001331F2BF5D9C8
:100820007047C04640000034054A1078431CDBB2D4
:100830001370172B02D9130010221A707047C0468C
:10084000E002002000B583B00100044B00931F2399
:1008500018220348FFF7A5FF03B000BD6C88001005
:10086000941B0020074B9B68103080001950BFF389
:100870005F8FBFF35F8F044B0021196082F31088F4
:100880007047C04600ED00E0240100D010B5091A01
:10089000081F0A4B9C466144094A914208D8C30785
:1008A00006D440104005400D064B184380B210BDE1
:1008B000054B064A9921064801F0C6FBFC070000DB
:1008C000FE0F000000E0FFFF88880010CC8A0010B7
:1008D000B888001010B5091A04394C08090B08D162
:1008E0004905490D064A11430180064B23434380C5
:1008F00010BD054B054AA121054801F0A5FBC046E6
:1009000000F0FFFF00F8FFFFF8880010A08A001039
:10091000B888001001238340034A10681840431E22
:100920009841C0B27047C04600E100E0002904D001
:10093000034B1860034B18607047034B1860FBE7CC
:1009400080E200E000E100E080E100E010B501237A
:1009500083401800FFF7EAFF10BD0000024B9B68C0
:1009600010308000C058704700ED00E070B5040002
:100970000D00EFF3108672B60C4B1B68002BFBD0FA
:10098000BFF35F8F2000FFF7E9FF094B984201D0CA
:10099000A84205D1320029002000FFF763FF70BD97
:1009A000044B054A7C21054801F04EFB240100D090
:1009B000CD01001008890010E88A0010B8880010E6
:1009C000F0B5CE46474680B583B006000D00EFF384
:1009D000108872B6564B1B68002BFBD0BFF35F8F9D
:1009E000544B9A6834001034A300D758524B9F429E
:1009F00007D0AF4200D199E00197504BFB1A2F2B43
:100A000009D9424639003000FFF72CFF03B0C0BCC3
:100A1000B946B046F0BD3000FFF77CFF81460021AB
:100A20003000FFF793FFBFF35F8FFFF71CFC002838
:100A300001D0844211D10123019C9C430022A36870
:100A4000AB4212D00622A256002A0DDB53009B189F
:100A50009B002200394CE418F1E72C21384B394A2D
:100A6000FF31394801F0F0FA2200AB4257D1062598
:100A70006557002D39DB6B005B199A002F4B9B18D3
:100A80009A68A260DA79E27106229A56A2719B797D
:100A90005BB2002B10DABD200002A0806B005B1956
:100AA0009B00264AD318294A117899711570494636
:100AB0003000FFF74BFFA4E7201D6B005B199B0084
:100AC0001E4A9B181A1D9B88D90A1C2907D15B0551
:100AD0005B15023359005118FFF7D8FEDDE71C4BB8
:100AE0001C4AA721184801F0AFFA002812D1002AA9
:100AF0000ED0FF239371184B9380144A1378A3717F
:100B0000164B0E49641A644163431B0D1370CEE704
:100B1000094FF2E7201D1249FFF7DCFEC7E760210D
:100B2000104B084AFF31084801F08EFA024F68E77F
:100B3000240100D000ED00E0CD010010E40200200F
:100B40001C8A0010B88A0010B888001046210020C6
:100B5000048A0010D88A001000BDFFFFAAAA000076
:100B60001E030020408A001070B5040001260643D1
:100B70002D4BF31A2F2B28D8FFF775FB00282BD00D
:100B8000EFF3108C72B6294B1B68002BFBD0BFF320
:100B90005F8F274D22002449521A524155432D0D93
:100BA0006DB2244B9B6880001B58B3421BD00022BF
:100BB000032A32D853009B189B001B49CB189B7902
:100BC0005BB2AB421FD00132F2E7C2211A4B1B4A83
:100BD00049001B4801F038FA88211A4B174AFF31A7
:100BE000174801F031FA134B9B68174A1A50174BFC
:100BF0001A78A2711D70BFF35F8F0C4B00221A6030
:100C00008CF3108870BD08005300991889004118B2
:100C1000FF268E710E4A8A80E9E7CC210D4B074AE8
:100C20004900074801F010FAE4020020240100D036
:100C3000AAAA000000ED00E0488A0010848A001093
:100C4000B8880010708A0010CD01001046210020E5
:100C500000BDFFFF7C8A00100022044B02E0044923
:100C600002C30132072AFAD97047C04600E400E007
:100C700080808080024B9C466144890001607047FF
:100C80004000003470B505000C00080000F0CCFDF9
:100C9000200000F0D5FE0849200000F015FEFFF707
:100CA000C3FD064B9C466044800068602C75A40020
:100CB000034BE55070BDC046C90F00104000003422
:100CC000C41E00200A4B1A68EFF3108172B6136835
:100CD000002BFCD0BFF35F8F054B1B68BFF35F8F0A
:100CE00000221A6081F3108840BF00200021704765
:100CF0002021002010B5002922D003681B7B9942D7
:100D00001ED8174B9C466144090183689C46614488
:100D10000C684968002A19D003681B7B9A4215D8D1
:100D200083680F488446624412019A181068536819
:100D3000020001208B4201D80ED00020C0B210BDAD
:100D4000084B094A3B21094801F07EF9054B064A48
:100D50003B21064801F078F9A242EFD8EDE7C04602
:100D6000FFFFFF0F548B0010B88D0010188B001080
:100D700010B500291ED0037B99421BD84B005B188D
:100D8000033B0468A4466344002919D0002A1DD0FF
:100D9000914221D0002A25D0047BA24222D80468A7
:100DA00050008018033820188170197800291FD14D
:100DB0001A7010BD104B114A6821114801F044F916
:100DC000104B114A6F310E4801F03EF90F4B0E4A9D
:100DD00070210B4801F038F90D4B0B4A712108487E
:100DE00001F032F9044B054A6821054801F02CF95D
:100DF00041701A70DDE7C046888B0010248E001009
:100E0000A48B0010F48B0010008E0010008C0010DA
:100E10000C8C001070B506000D001400002914D0D1
:100E2000002A14D0806873689847002806D02200F2
:100E300029003000FFF79CFF280007E02A0021006E
:100E40003000FFF795FF200000E0100070BD0800A3
:100E5000FCE70000F0B583B00500009201930AABF7
:100E60001C780BAB1F78002C26D003685A7B944269
:100E700007D10123002B19D1002C3BD1200003B056
:100E8000F0BD002C0CD01A7B944209D81A6863007C
:100E90001B19033BD3189B78002BEBD00123E9E708
:100EA0003E4B3F4A68213F4801F0CEF83E4B3F4A57
:100EB00065213F4801F0C8F803689C7B002CDBD01B
:100EC00012D01A7B94420FD862001219033A1968A3
:100ED0008C46624451789973002900D1D97300235C
:100EE000937053701370C7E72C4B2D4A68212D481F
:100EF00001F0AAF8002C3AD02B681B7B9C4236D814
:100F00002C4BE3181B01AA6894466344009A1A60AC
:100F1000019A5A60089A9A60099ADA602E68002C41
:100F20002BD030D0337B9C422DD863001B19033B60
:100F300032689446634400229A705A701A70717B2A
:100F400022003000FFF766FF7073844200D095E7FF
:100F5000287D009A019B00F0FFFC061E01D0002FA7
:100F600017D00C9B002B00D188E71E7086E7124B30
:100F7000124A3B210E4801F067F8114B114AA52196
:100F8000084801F061F8054B054A6821054801F061
:100F90005BF82868210000F007FFE2E7888B00106B
:100FA000248E0010A48B0010248C0010308E0010B2
:100FB000188B0010FFFFFF0F548B0010B88D00102E
:100FC000148B0010148E0010F0B5DE4657464E46C6
:100FD0004546E0B58BB00990002308938200B24BE0
:100FE000D658370032E0B14BB14A3F21B14801F049
:100FF0002BF8B14BB14A3B21B14801F025F8B14B78
:10100000B14A8C21AE4801F01FF8B04BAE4A902196
:10101000AB4801F019F8A84BAD4A4021A84801F0AF
:1010200013F82A686B68099800F096FC00239A462A
:1010300098467B68BFF35F8F00221A6086F31088A2
:101040004346002B51D1002800D126E100F0F8FBE7
:1010500002000B1EC7DB0020002106900791786874
:10106000EFF3108672B601680029FCD0BFF35F8FE2
:10107000396888464C7B002C32D0BAD0097B8C4230
:10108000B7D8944965182D01B9688C46654428681D
:101090006968801A99410029C3DC01D10028C0D1B8
:1010A0000021404600F076FEA042A8D12A686B6875
:1010B00006920793AB689846EB689A464346002B26
:1010C000A3D0002CA7D03B681B7B9C42A3D8631EF7
:1010D000FA68D35C08931B02184338610020A8E724
:1010E00000239A4698460020A3E7089B1B0223434F
:1010F000994651461800C04705000E007A68EFF384
:10110000108B72B6136859424B41D9B2002BF9D1FA
:10111000BFF35F8F002E26DB002E52DD3B69002BD4
:1011200053D04B4572D100F08BFB02000B1E73DBDA
:101130000100180052197341984202D804D191421B
:1011400002D901225242D317002B6BDB00210491FC
:1011500001310391029451460191414600913800BA
:10116000FFF778FE49E03B69002BD5D04B451CD1F9
:10117000069A079B10001900521BB341994202D8EE
:1011800004D1904202D901225242D317002B12DB24
:10119000002104910131039102945146019141468D
:1011A00000913800FFF756FE27E04B4B464A9F213F
:1011B000434800F049FF3D4B3D4A3F213D4800F088
:1011C00043FF002E01D1002DA8D13A68002C45D054
:1011D000537B9C422CD1012100293FD1D37B002B92
:1011E00042D1D473002C52D03B681B7B9C424ED81A
:1011F000FA68013C135D0133135500233B617A68A3
:10120000BFF35F8F13608BF310881FE7324B2E4ABA
:10121000A2212B4800F018FF244B254A3F212548E6
:1012200000F012FF214B224A3F21224800F00CFF20
:10123000002C0DD0137B9C420AD863001B19033B82
:101240001068844663449B78002BC5D00121C3E716
:10125000224B234A6821234800F0F6FE224B234A02
:10126000F621204800F0F0FE002B0AD0117B8B42C3
:1012700007D85900CB18033B11688C4663445C7057
:10128000AFE7164B164A6821164800F0DDFE0A4B00
:101290000F4A40210A4800F0D7FE0BB0F0BCBB4615
:1012A000B246A946A046F0BDC41E0020208700100B
:1012B000848D00103C870010548B0010B88D0010F6
:1012C000188B00104C8C00109C8D0010648C00104A
:1012D000DC8D0010FFFFFF0F708C0010888B00105A
:1012E000248E0010A48B0010AC8C0010F08D001028
:1012F00010B50A4B5B68002B04D00A210848FFF7A1
:10130000B9FC10BD054C2300064A1021206800F0EE
:1013100061FC03212000FFF7B5FCEEE72C03002061
:1013200020210020F50C001010B5064B5B68002B47
:1013300001D0044810BD044B044A5C21044800F06D
:1013400083FEC0462C030020D08C0010C48D0010FA
:10135000188B0010F0B5DE4657464E464546E0B5C0
:101360008BB0804616001F00149B9A46159B994629
:1013700016AB1B789B461F2302AA944663440022A7
:101380001A7032E0002809D042461268127B90425F
:1013900004D8421E4146C9688A5C48E0434B444A2F
:1013A0004021444800F050FE0798002B75D05B4662
:1013B000002B72D04946D04704000D0003000B43B8
:1013C00000D171E0002946DB00F03AFA06000F1E5A
:1013D00055DB36196F41B94202D804D1B04202D967
:1013E00001267642F717002F4FDB43465A68EFF38A
:1013F000108472B6136859424B41D9B20791002B41
:10140000F8D1BFF35F8F1F3302AA9446634404935D
:101410000023039302934B460193534600933200FB
:101420003B004046FFF716FD031EABD102004146CC
:101430004968BFF35F8F00250D6084F31088002B8F
:1014400029D01F2302A98C4663441B78002BABD103
:1014500012021043A9E732003B00361BAF41BB42EA
:1014600002D804D1B24202D901267642F717002FE2
:10147000BBDA114B114A3F21114800F0E5FD0E4B3C
:101480000E4A3F210E4800F0DFFD0B4B0B4A3F2177
:101490000B4800F0D9FD012040420BB0F0BCBB4628
:1014A000B246A946A046F0BD0798F6E7548B001057
:1014B000DC8D0010188B001020870010848D001028
:1014C0003C870010F8B504004268EFF3108572B64F
:1014D000136858424341D8B2002BF9D1BFF35F8F54
:1014E000CBB22268567BB3421BD10120002848D0E2
:1014F000206988422BD0090AC9B2002B2ED020685F
:10150000007B83422AD8581EE668305C88422BD084
:1015100000206368BFF35F8F00221A6085F3108894
:10152000F8BD002B0DD0167BB3420AD85E00F6182A
:10153000033E1768BC466644B678002ED6D001201C
:10154000D4E7134B134A6821134800F07DFD852131
:10155000124B134A4900134800F076FD124B134A10
:101560004021104800F070FD1900100000F01CFC34
:101570000028CED112210E4B094AFF31094800F054
:1015800063FD23698B42C4D100232361C1E7C046B8
:10159000888B0010248E0010A48B0010F48C001097
:1015A0006C8D0010188B0010548B0010DC8D001017
:1015B000188D0010F0B587B006000F00FEF753FE3F
:1015C00000281FD106246442E517A4197D41BD42BD
:1015D00002D803D1B44201D900240025002D14DB28
:1015E0000494059500F02CF902000B1E13DBA41ADD
:1015F0009D41002D17DC14D03000390000F02CF98B
:1016000007B0F0BD234800F0B9FD234B234A3F212A
:10161000234800F019FD204B204A3F21204800F0CC
:1016200013FD002CE8D0FFF77FFE00230293019307
:101630001C4B0093049A059BFFF78CFE002818DAD8
:10164000DAE7002300E00023002BD5D1164B1A68FF
:10165000EFF3108172B61368002BFCD0BFF35F8FDD
:10166000114B1B68BFF35F8F00221A6081F3108853
:1016700020BF0499059A0D4B5B6A9A42E3D80B4848
:10168000806A884203D29A42DBD00123DCE701233F
:10169000DAE7C0461C8D001020870010848D0010F2
:1016A0003C870010C50C00102021002000400540A0
:1016B000F8B504000D0000F0C3F802000B1E10DBAB
:1016C00020002900801859418B4202D804D182425F
:1016D00002D901204042C117002908DBFFF76AFF49
:1016E000F8BD064B064A3F21064800F0ADFC034B0F
:1016F000034A3F21034800F0A7FCC04620870010A2
:10170000848D00103C87001010B5FA22920000234F
:10171000002102F04FFEFFF7CBFF10BD70B584B083
:1017200006000C00FFF700FE002302930193194B03
:10173000009332002300FFF70DFE051E11DD20BFD0
:10174000FFF7F2FD2900FFF7BDFE134B5B6A9C42D9
:101750001BD8114A926AB2421AD29C4213D001207D
:1017600014E00D4B5B6A9C4209D80B4A926AB24264
:1017700007D29C4201D0012008E0002006E00020B2
:1017800004E0012002E0002000E0002004B070BD71
:101790000120FBE7C50C00100040054070B5EFF3D9
:1017A00005833F2018401038EFF3108C72B6194BA8
:1017B0001B68002BFBD0BFF35F8F01231900814012
:1017C000154A5163154A12781400C440234214D0BC
:1017D000114B5C6A8300124D5B599C4206D3830017
:1017E000104C1B598A430D490A7007E00A4A031D31
:1017F0009B0099589950002300E00023BFF35F8FAE
:10180000044A002111608CF31088002B00D0984707
:1018100070BDC046280100D000400540482100208E
:10182000282100206C1B002010B50100024A03484B
:10183000FEF79EFF10BDC046508E001045210020CF
:10184000044B5B6A034A906A1900536A9942F9D1C2
:101850007047C04600400540084B5B6A01E0074BFB
:101860005B6A8B42FBD301E0044B5B6A8B4203D182
:10187000024B9B6A8342F7D37047C0460040054045
:1018800070B504000D00FFF7DBFF02000B00200025
:101890002900801859418B4202D804D1824202D9D2
:1018A00001204042C117002902DBFFF7D5FF70BDC0
:1018B000024B034A3F21034800F0C6FB208700107B
:1018C000F88E00103C87001070B504000D00EFF397
:1018D000108672B61B4B1B68002BFBD0BFF35F8FCB
:1018E000002D1CD02000FFF739F8174B83420BD096
:1018F00019002000FFF73AF801212000FFF726F831
:101900000123A340114A1360A400114BE550BFF31B
:101910005F8F0C4B00221A6086F3108870BDA20006
:101920000B4B0021D1500122A2400A490B7893436E
:101930000B7005492000FFF743F800212000FFF756
:1019400005F8E4E7280100D09D1700103860054035
:101950006C1B002048210020F0B5DE4600B584B0A5
:101960000400150001921E000293FFF769FF039522
:101970008E4202D84ED185424CD9EFF3108B72B60D
:10198000274B1B68002BFBD0BFF35F8F254A1778CE
:101990000125A540EBB23B431370234B5D63221D31
:1019A00092000199D150A2002049029850501B6A20
:1019B0002B4212D11C4B1B6C2B4208D00020BFF3D2
:1019C0005F8F174B00221A608BF3108823E0184BAF
:1019D000184AC121184800F037FBFFF731FF8E424B
:1019E00014D802D1039B834210D80E4B1B78BB4204
:1019F0000ED00D4B1D625D631F2004400123A340E8
:101A00000E4A1360074B1F701E38D8E70020D6E738
:101A10000120D4E7012004B080BCBB46F0BDC04625
:101A2000280100D048210020004005402821002046
:101A3000748E0010DC8E0010988E001080E200E0A2
:101A4000EFF3108C72B60B4B1B68002BFBD0BFF36F
:101A50005F8F01238340084A136208490A789A433A
:101A60000A70BFF35F8F034B00221A608CF310885B
:101A70007047C046280100D00040054048210020A2
:101A800010B500291ED0037B99421BD84B005B1870
:101A9000033B0468A4466344002919D0002A1DD0E2
:101AA000914221D0002A25D0047BA24222D804688A
:101AB00050008018033820188170197800291FD130
:101AC0001A7010BD104B114A6821114800F0BCFA81
:101AD000104B114A6F310E4800F0B6FA0F4B0E4A08
:101AE00070210B4800F0B0FA0D4B0B4A71210848E9
:101AF00000F0AAFA044B054A6821054800F0A4FA50
:101B000041701A70DDE7C046888B0010009000100D
:101B1000A48B0010F48B0010EC8F0010008C0010D0
:101B20000C8C001070B506000D001400002914D0B4
:101B3000002A14D0806873689847002806D02200D5
:101B400029003000FFF79CFF280007E02A00210051
:101B50003000FFF795FF200000E0100070BD080086
:101B6000FCE7000010B50023437301338373037B4C
:101B7000C3730123027B9A4214D9002B0CD0027B41
:101B8000934209D85A00D218033A01688C4662443D
:101B90000133DBB25370EDE70B4B0C4A68210C4864
:101BA00000F052FA002A09D0924207D80168530087
:101BB0009A18033A8A180023537010BD024B034A47
:101BC0006821034800F040FA888B00100090001054
:101BD000A48B001010B5017342608360FFF7C2FF51
:101BE00010BD000070B50400081E00D170BD0029B2
:101BF00034D0237B994231D84B005B18033B2268D9
:101C0000944663445A78002AF0D02DD0237B9A4220
:101C10002AD853009B18033B21688C4663445D78A7
:101C200000215970002825D0237B984222D84300F8
:101C30001B18033B21688C46634400215970010046
:101C40002000FFF76FFF060029002000FFF7CAFF02
:101C5000020031002000FFF765FFC7E7084B094A83
:101C60006821094800F0F0F9054B064A682106484A
:101C700000F0EAF9024B034A6821034800F0E4F956
:101C8000888B001000900010A48B001070B5050028
:101C90000C001600002928D02DD0037B99422AD8A9
:101CA0004B005B18033B0268944663445A78002A51
:101CB00027D19A78002A2AD11978FFF793FF0300D9
:101CC000002E03D0EA7B002A27D1EC73002B37D1FA
:101CD000002C49D02B7B9C4246D82B6861000C1904
:101CE000033C1C190023637070BD224B224A38212B
:101CF000224800F0A9F9224B224A6821224800F02C
:101D0000A3F9224B1C4A3A211C4800F09DF9204BB4
:101D1000194A3B21194800F097F9002A0AD0297B7B
:101D20008A4207D851008A18033A29688C466244CF
:101D30005470CAE7124B134A6821134800F084F923
:101D4000002B0BD02A7B934208D843001B18033B7F
:101D50002A689446634400229A70B9E7084B094AFE
:101D60006821094800F070F9054B064A68210648C9
:101D700000F06AF9108F0010D88F0010188F001033
:101D8000888B001000900010A48B0010548F00105E
:101D90007C8F001070B504000A00457B2900FFF716
:101DA00075FF6073280070BD70B50400002967D00E
:101DB000437B8B420ED0002911D0037B99420ED871
:101DC0004B005B18033B0268D0188378002B0CD1C2
:101DD000002056E00121FFF7DDFF012051E0294BF3
:101DE000294A6821294800F02FF9002B20D0227BB6
:101DF00093421DD85A00D318033B2268D218256895
:101E0000EB5C8B421AD0002B1BD0227B934218D85C
:101E10005A00D318033B2268D21853788B4216D04D
:101E2000002BF0D11A4B1B4A67211B4800F00CF91C
:101E3000144B154A6821154800F006F943781370D1
:101E400007E0104B104A6821104800F0FDF8437875
:101E5000537000238370437001222000FFF716FFA8
:101E60000200617B814205D02000FFF75BFE6073BA
:101E7000012006E0094B074A6D21074800F0E4F80D
:101E8000002070BD888B001000900010A48B001003
:101E90007C8A0010C08F0010188F0010A08F0010D7
:101EA00010B50400FEF7C0FC01002000FEF7E2FEC2
:101EB000FF232371BFF35F8F10BD10B50400FEF741
:101EC000B3FC01002000FEF7D5FEFF2323710023A1
:101ED0006371BFF35F8F10BD034B9C466144890063
:101EE0000160BFF35F8F70474000003410B50400FD
:101EF0000120FEF7A7FC01002000FFF7EDFF10BD59
:101F000070B504000D00062000F052FAC000290050
:101F100001F00CFCC60908D00E4B9E4217D87F2357
:101F2000184001303500460800E001256562A662D0
:101F30002C3480208001044300232360062000F01D
:101F400037FA8000A901891901F0F0FB70BD002665
:101F5000014DEBE7FEFF0000FFFF0000002909D064
:101F60000A22064B9C466044434258414000044BC1
:101F7000C252704780225200F3E7C0460080FCBF87
:101F80003821002070B505000C00062000F010FA82
:101F9000002829D0164B9D4227D08022D203154B12
:101FA0001A60154B1A60154B9B6811009943FAD1C2
:101FB00000212800FFF7D2FF21002800FFF7A0FF33
:101FC0002C002C34E96A60224A406E2111408022A4
:101FD0005201224311600A4B2B6380239B01234350
:101FE00010221A600323AB6470BD80221204D6E76E
:101FF0000080034000E0004000F0004000C00040CE
:102000000103000000BEFDE703000A4A1268002A2F
:1020100008D0084A1068C318074A9A4206D3054AEE
:1020200013607047034A05491160F2E701204042FE
:10203000F7E7C0464C1E0020000004204C21002081
:1020400010B5FFF7DFFF000010B582B00C001900DB
:10205000002A0CD0084B002A0BD0019200932300D9
:102060000200064802F01CFC0120FFF7CBFF044BE6
:10207000F1E7034AF1E7C046D8900010E89000105D
:102080001C87001070B52B4B2B4A1A602B4B2C4A27
:102090001A602C4B9A682A4B9343FAD12A4C01E0E0
:1020A00008CC9847294B9C42FAD300F001F9234B06
:1020B000274A1A60234B9B68DB43DB01FAD1254B8F
:1020C00040229A675A671A67DA66234C09E0234B65
:1020D000234A83212348FFF7B7FF2000FFF7E0FEE4
:1020E0000834214B9C4209D22368002BF5D0012BE8
:1020F000EDD12000FFF7E1FE0834F2E71B4CA168A8
:102100001B4DC022280002F015FAA560FEF7ABF8BF
:10211000002800D000BEFEF777FBFEF79DFDFFF71D
:10212000E7F8144C01E008CC9847134B9C42FAD3D3
:1021300070BDC04600E00040BFCDFBFE00F0004097
:10214000FE7F3C0000C00040080C0020180C00205E
:10215000FFFFFF0100F00140000C0020189100106B
:102160008C91001038910010080C002000ED00E068
:1021700000000020180C0020200C00200FB400B537
:1021800083B0084802F05AFB049B002B07D005A936
:102190000191180002F062FB034802F04FFB01209E
:1021A000FFF730FF7C910010CC840010F8B5DE46BC
:1021B00057464E464546E0B505000F0092460A9A3E
:1021C00093424ED31A0E91461E020A9A0023300003
:1021D000494601F0EDFA80466C006419A4002F4BCB
:1021E0009C4664446368834200D260602B1FDBB26C
:1021F0009B46012B3BD9C0239B0123438022120124
:102200001A60AB00264A9958002905D0506901F0A0
:102210008DFA01300138FDD153465A0123685A40E6
:10222000E0231A4080235B0123431A605A46012AA7
:1022300028D980239B012343802212011A60434640
:102240006360424600233000494601F0B1FAAD0018
:10225000134B58510120F0BCBB46B246A946A046DC
:10226000F8BD104B104A2D211048FFF7EDFE012F4D
:10227000C1D1C0239B01234303221A60A368DB075B
:10228000FCD5C9E72168794003220A401A60A26898
:102290000123BB401342FAD0CBE7C0460080004088
:1022A000981B00209C910010F8910010B091001034
:1022B00030B583B00C2000F021F9FEF79BFA00281E
:1022C0000DD0002304E099002D4A2E488850013398
:1022D000092BF8D92A4B2C4A5A6203B030BD2B4B3C
:1022E00000229A6700F012F9294B01221A60274B4D
:1022F0005B6C012BFBD1274B03221A60234B9B6B9A
:10230000012BFBD1013300930433234A01212348DD
:1023100000F054F805230093214A0121214800F0E0
:102320004DF8214B0093002202210420FFF73EFFCD
:102330001E4D00952B00002201210520FFF736FFDE
:10234000104C00942300002200210720FFF72EFFED
:1023500000942300002200210820FFF727FF0A4BEA
:1023600000932300002200210920FFF71FFF0095A2
:102370002B00002200210620FFF718FFADE7C04622
:10238000981B0020006CDC021BB70000008000409E
:102390003CB0004030B00040002F6859008002403F
:1023A000008C864700C00240001BB70040597307ED
:1023B0008000014BC0587047981B0020F0B5C646FE
:1023C00000B504000F0090461D000C2001F0AEF98E
:1023D00006003D4A42443D4B9A4243D843011B1AF2
:1023E0009901C91AC90009188901404601F09EF9EE
:1023F0000200103A98235B009A4239D86B1E062BD4
:102400003CD8069B013B062B38D8069B9D423BD30C
:1024100043461A09B2423DD32D04069B1E033543A1
:102420002368002B3CDB2A4B9C424AD0802252017D
:10243000284B1A60284B1A60284B9B68110099435F
:10244000FAD12760A060231DC02292011A432123E4
:1024500013602368002BFCDAE5600823136080BC5E
:10246000B846F0BD1E4B1F4A11211F48FFF7ECFD77
:102470001E4B1C4A19211C48FFF7E6FD1C4B194A4C
:102480001C211948FFF7E0FD1A4B164A2221164875
:10249000FFF7DAFD184B134A25211348FFF7D4FD47
:1024A00022683F231340BB42BDD1A3681B051B0D0F
:1024B0008342B8D1E368EE22D2021340AB42B2D1DC
:1024C000CDE780229201B3E780E84BD380F8A932B0
:1024D00000C0024000E0004000F0004000C00040AA
:1024E000089200104493001068920010A892001007
:1024F000C4920010109300102893001080239B00BA
:102500000343014AD362704700800540064BAA226C
:1025100012011A602F22DA60044B054A1A60024B3E
:102520005B68002BFBDA704700400240006002400D
:1025300000B0FA00704710B5002802D00B68496857
:10254000984710BD0100002007E083001B185B00C6
:10255000501C08601078C01830380A681378303B77
:10256000DBB2092BF1D97047F0B5DE4657464E462F
:102570004546E0B583B093461F000C9B9A460D9CE0
:102580000E9B99460F9B9B0703D0B8460F00060091
:1025900022E00192A34688464E46B9460700B4425F
:1025A00007D2551C4B4641462020B84701342A002B
:1025B000F5E73D004F465C46019B9B46B1464646CB
:1025C000B84637002E0007E0013C551C5346185D05
:1025D00043463900B0472A00002CF5D135003E00B3
:1025E00047460F9B9B0707D4100003B0F0BCBB46C7
:1025F000B246A946A046F0BDB0464E46B9462F00A9
:102600005D46531BB342EFD2541C4B46414620203B
:10261000B8472200F5E7F0B5CE46474680B585B00D
:10262000944698460C9D0D9C0EAB1B789946109ACB
:10263000119B129EB7071CD4002B0CD0F7070AD5AC
:102640004F46002F02D10C37374204D0013B02E045
:1026500030272F550134944201D21F2CF8D9F707A7
:1026600007D59C4205D21F2C03D830272F550134A3
:10267000F5E7F70615D5770505D4002C03D094426D
:1026800024D09C4222D00F9A102A2BD00F9A102AC5
:1026900030D00F9A022A35D01F2C02D830222A556A
:1026A00001341F2C05D84A46002A31D02D222A5544
:1026B0000134039602930194009543466246FFF766
:1026C00053FF05B0C0BCB946B046F0BD621E012C38
:1026D00006D00F9F102F01D01400D4E7023CD2E7A0
:1026E0001400D0E7B206D1D41F2CCFD878222A55B7
:1026F0000134D1E7B206CCD51F2CCAD858222A55AE
:102700000134C9E71F2CC7D860322A550134C3E70A
:10271000720703D52B222A550134CAE73207C8D5E0
:1027200020222A550134C4E7F0B5DE4657464E460E
:102730004546E0B593B081468A46089209931CABA2
:1027400010CB1B789B461E9D219B9846002C03D1E5
:10275000102342469A4390468023DB0046461E40A3
:1027600042461A4212D0002C22D000260EE030330E
:10277000D9B2771C0AAB99552900200000F0D6FF8A
:10278000AC4216D31F2F14D83E00040029002000AD
:1027900000F0CCFFCBB2092BE9D94246920605D511
:1027A0004121C918C9B20A39C9B2E2E76121F8E783
:1027B000270043460693209B05931F9B0493039594
:1027C0005B46029301970AAB0093099B089A514616
:1027D0004846FFF720FF13B0F0BCBB46B246A946FF
:1027E000A046F0BDF0B5DE4657464E464546E0B53C
:1027F00095B0089009910A920B931E9E1F9C20ABE6
:102800001B789B46229B9946239D269B9A46330024
:10281000234303D1103352469A4392468023DB0070
:1028200057461F4052461A4219D0330023432DD039
:10283000002714E03033DAB27B1C98460CABDA5533
:102840004A462B003000210000F0B2FFA5421FD8FD
:1028500019D043461F2B1BD8474606000C004A469A
:102860002B003000210000F0A3FFD3B2092BE1D9E7
:102870005246920605D54122D218D2B20A3AD2B2B5
:10288000DAE76122F8E7B145E3D901E00023984691
:1028900053460693259B0593249B04934B46039331
:1028A0005B460293434601930CAB00930B9B0A9A41
:1028B00009990898FFF7AFFE15B0F0BCBB46B246C9
:1028C000A946A046F0BD0000F0B5DE4657464E468C
:1028D0004546E0B591B083468A460C9298461A9CCC
:1028E00008941B9D099522002B002000290001F06F
:1028F000EEF9002800D0E5E001225242D74B20003B
:10290000290001F0DFF9002800D0DBE0012252426B
:10291000D34B2000290001F0BFF9002800D0D1E0FE
:1029200000220023089E3000099D290001F0B4F91F
:10293000002800D0DDE008980999069007918023CF
:10294000DB001E9A1A400D921E9A1A4201D10623EC
:102950001C930698079904000D000A000600024324
:1029600000D1D1E0080D4005400DBE4CA4466044A6
:102970000A03120BBC4B13431F0001F0BBF9BB4A07
:10298000BB4B01F046F9BB4ABB4B01F01BF90400FD
:102990000D000022B94B3000390001F00AF9B84AA5
:1029A000B84B01F036F902000B002000290001F0BD
:1029B00009F901F0B7F9814601F09CF904000D0016
:1029C000B14AB24B01F025F90022B14B01F0FAF8FF
:1029D00001F0A8F90600AF4AAF4B2000290001F032
:1029E00018F904000D00300001F084F9AB4AAC4B3B
:1029F00001F00FF902000B002000290001F0D9F8C6
:102A000004000D0002000B0001F003F90A900B9185
:102A1000A44BF31800261F0522002B0020002900DC
:102A200001F0D0F80E900F9122002B0000208021A1
:102A3000C90501F0BEF804000D0000229A4B0A9867
:102A40000B9901F0C8F80022984B01F0BBF8020086
:102A50000B000A980B9901F0BEF80022944B01F08C
:102A6000B1F802000B000A980B9901F0B4F80200CB
:102A70000B002000290001F0A5F802000B000E98C1
:102A80000F9901F0A8F80022774B01F09BF8320073
:102A90003B0001F0BEF806000F0004000D00069A8E
:102AA000079B01F00FF9002830D001235B429C46C0
:102AB000E14400227D4B3000390001F08CF8040025
:102AC0000D0023E01E9B04931D9B03931C9B02930C
:102AD000089A099B0092019343460C9A5146584626
:102AE00000F0FCF811B0F0BCBB46B246A946A046C7
:102AF000F0BD0023002406930794069680231B064E
:102B00009C46654407951AE7002399464B46633374
:102B1000C62B1ED804261E9B1B0526D52B0023433F
:102B20000FD0644A644B0698079901F0C3F8002857
:102B300079D00022614B0698079901F0ADF8002882
:102B400071D01C9B4B4506DD4A46981A431E1C93C8
:102B500003E00526DFE700231C938023DB001E9A99
:102B60001A431E920026002399461D9B9E4264D262
:102B70009F1B02231E9A1A400A921E9A134202D0E9
:102B8000002E00D000274B46002B07D022002B0040
:102B90000698079901F01FF806900791002200237C
:102BA0000898099901F078F8002848D1444B1E9AFA
:102BB0001340049303971C9B0293069B079C00936E
:102BC000019443460C9A5146584600F087F8002E6F
:102BD00000D187E71E9B9B063DD54525441C4346F7
:102BE000020051462800D8474B46DA179B1853403D
:102BF00005220592013E0496002203920A320292B7
:102C00004A46D00F01900093434622005146584651
:102C1000FFF78AFD0A9B002B00D163E702005F46A5
:102C20000C9E1D9D54E01C9B002B9ED00D9B002BE9
:102C30009BD01C9B013B1C9397E7002799E7069CC0
:102C4000079D2200290080200006844661440B0075
:102C500006920793AAE76525C0E7C046FFFFEF7F0E
:102C6000FFFFEFFF01FCFFFF0000F03FFB799F50EB
:102C70001344D33FB3C8608B288AC63F0000F83F97
:102C800061436F63A787D23F71A379094F930A40CD
:102C90000000E03F1655B5BBB16B0240EF39FAFEBC
:102CA000422EE63FFF03000000002C4000002440BD
:102CB000000018402D431CEBE2361A3F80842E4161
:102CC000FFF7FFFF541C434651462020B84722001F
:102CD000931BAB42F6D3100004E7C046F0B5DE46C6
:102CE00057464E464546E0B595B006900791934647
:102CF0009946209F1E9A1F9B1000190000F0E7FFC5
:102D0000002831D101225242BF4B1E981F9900F07A
:102D1000C3FF002837D101225242BC4B1E981F9995
:102D200000F0D0FF00283DD10022B94B1E981F991A
:102D300000F0C8FF002850D10022B64B1E981F9902
:102D400000F0AAFF002848D1002200231E981F99F6
:102D500000F0A2FF002850D100239846229B5B057B
:102D600000D4B6E0002458E0229B0393219B0293F9
:102D700003230193A84B00934B465A4607990698A4
:102D8000FFF7F2FB0EE1229B0393219B02930423A6
:102D90000193A24B00934B465A4607990698FFF7BA
:102DA000E3FBFFE00423229A1A4022990B4210D041
:102DB0009B4B002A0FD00422229903912199029162
:102DC000019200934B465A4607990698FFF7CCFBB1
:102DD000E8E0944BEDE70322EEE7229B0493219B6E
:102DE000039302971E9B1F9C009301944B465A46E7
:102DF00007990698FFF768FDD4E01E9A1F9B0020F4
:102E0000002100F0D6FE1E901F9101239846A5E7F1
:102E10000CAB30221A55013F01341F2C01D8092F69
:102E2000F6D81E981F9900F07DFF050000F062FFA4
:102E300002000B001E981F9900F0BBFEFA007A4BAF
:102E40009B181A685B680A920B9300F0E2FE0890E8
:102E5000099100F08BFF060000F048FF02000B0014
:102E60000898099900F0A5FE0890099100226F4B7F
:102E700000F028FF00282ED00136300000F036FF89
:102E800002000B000A980B9900F00CFF002801D0FB
:102E900001350026002F2CD1280000F02BFF020066
:102EA0000B001E981F9900F084FE06000F00002200
:102EB0005E4B00F0F1FE002846D100225B4B300053
:102EC000390000F0FFFE00283ED1EB073CD501356C
:102ED0003AE0062746E70022544B0898099900F08B
:102EE000DBFE0028D6D1002E01D0F307D2D5013663
:102EF000D0E7AA461F2C11D8013F0A21300000F06C
:102F000015FC651C30310CAB19550A21300000F05E
:102F10000DFC092E0ED906002C00EBE755461F2CA0
:102F20000CD87B1E002F09D00CAA302111551F0090
:102F30000134F4E72B0055461C00F0E71F2C03D8A2
:102F40000CAB2E221A5501341F2C10D80A21280050
:102F500000F0C4FB661C30310CAB19550A21280067
:102F600000F0BCFB051E01D03400EDE73400032364
:102F7000229A1340012B1CD01F2C06D84346002B4D
:102F800032D00CAB2D221A550134229B0393219B86
:102F9000029301940CAB00934B465A46079906984E
:102FA000FFF7E2FA15B0F0BCBB46B246A946A04610
:102FB000F0BD219B002B13D04346002B02D10C33D4
:102FC00013420FD0219B013B2193190003E00CAB6E
:102FD00030221A5501348C42CED21F2CF7D9CBE7C0
:102FE0002199F8E72199F6E7229B5B0704D50CAB02
:102FF0002B221A550134C8E7229B1B07C5D50CAB01
:1030000020221A550134C0E7FFFFEFFFFFFFEF7FDB
:1030100065CDCD4165CDCDC15C93001060930010AE
:103020005493001050930010489500100000E03FAA
:10303000F0B5DE4657464E464546E0B593B082466B
:103040008B4690461193002900D1EBE200275546AC
:10305000119B1878002800D1E7E2252809D07C1CB4
:1030600043463A005946A847119B01331193270064
:10307000EEE7013311930024119A11780B00203BE5
:10308000D8B2102803D88300D048C3589F460B00FD
:10309000303BDBB2092B2CD92A292FD000230A93ED
:1030A000119B1A782E2A39D000239A46119A137848
:1030B000683BD9B2122976D88B00C549CB589F46B8
:1030C00001231C4301321192D6E702231C43013233
:1030D0001192D1E704231C4301321192CCE708235B
:1030E0001C4301321192C7E710231C430132119295
:1030F000C2E711A8FFF726FA0A90D1E71C9B1A1D18
:103100001C921868002804DB0A90119B013311936C
:10311000C6E702231C4343420A93F6E78022D2000B
:1031200014435A1C11925A781300303BDBB2092B1E
:1031300004D92A2A07D000239A46B7E711A8FFF737
:1031400001FA8246B2E71C9B1A1D1C9218680028DF
:1031500004DB8246119B01331193A7E70020F8E7B7
:1031600080235B002343511C119152786C2A01D0BB
:103170001C0018E0C0239B001C430131119112E098
:1031800080232343511C11915278682A01D01C00DE
:1031900009E0C0231C430131119104E080235B004E
:1031A0001C4301321192119B18780300253BDAB2BF
:1031B000532A00D92CE29300864AD3589F46802395
:1031C0009B001C4301321192EDE780235B001C43FE
:1031D00001321192E7E7782809D0582838D06F28B3
:1031E00038D0622838D010239C430A2600E01026ED
:1031F000582833D0692803D0642801D00C22944386
:10320000630501D50122944369282AD0642828D077
:10321000A30500D59FE0E30500D5B8E0630600D420
:10322000CAE01C9A111D1C911168FF220A400594E6
:103230000A9B049353460393029600230193009242
:1032400043463A0059462800FFF76EFA070027E088
:103250001026CDE70826CBE70226C9E72022144333
:10326000C8E7A30520D4E30550D4630666D51C9AAD
:10327000111D1C911168FF220A40D317D118594023
:1032800005940A9B0493534603930296D20F01922E
:10329000009143463A0059462800FFF745FA0700D7
:1032A000119B01331193D3E61C9BDA1D07218A433E
:1032B000110008311C91116853689C46DB170C9370
:1032C0000D930C9A0D9B100048400E90624653409F
:1032D0000F930E980F990C9A0D9B801A99410E909E
:1032E0000F9108940A9B0793534606930496002374
:1032F00005936346DA0F02920090019143463A002B
:1033000059462800FFF76EFA0700C9E71C9A111DFD
:103310001C911268D317D118594005940A9B049345
:10332000534603930296D20F0192009143463A000E
:1033300059462800FFF7F8F90700B1E7230605D53D
:103340001C9A111D1C910023D25E96E71C9A111D38
:103350001C91126891E71C9BDA1D07218A4311001A
:1033600008311C9108940A9B0793534606930496D0
:103370000023059302931368546800930194434615
:103380003A0059462800FFF72DFA070088E71C9AF3
:10339000111D1C9105940A9B0493534603930296B6
:1033A000002301931368009343463A0059462800CE
:1033B000FFF7BAF9070073E723060DD51C9A111D14
:1033C0001C9112681204120C31E7C0466893001079
:1033D000AC930010F89300101C9A111D1C911268F8
:1033E00025E746281AD01C9B0733072293431A006F
:1033F00008321C9204940A9A0392524602925C6824
:103400001B680093019443463A0059462800FFF791
:1034100065FC0700119B0133119319E620231C431F
:10342000E1E7672801D0472802D180231B011C4314
:10343000452801D0472801D120231C431C9B07337A
:10344000072293431A0008321C9204940A9A0392AA
:10345000524602925C681B680093019443463A000E
:1034600059462800FFF730FA0700119B01331193EA
:10347000EEE502231A002240924623421FD0012487
:103480001C9B1A1D1C927A1C9146187843463A00E0
:103490005946A8475346002B16D1119B013311936F
:1034A0004F46D5E5561C434659462020B8472300D1
:1034B00032005C1C9D42F5D83D001700E0E7012377
:1034C0003A002F000A9DF4E74A46A9460A9D06E005
:1034D000571C434659462020C84734003A00661C12
:1034E000A542F5D84D469146D7E71C9B1A1D1C9264
:1034F0001B6899465346002B00D1013B4E4601E024
:10350000013613003278002A02D05A1E002BF7D160
:103510004B46F21A10928023DB0026001E401C420C
:1035200003D0524501D95346109302231A0022407A
:103530000B92234205D03A0037004C46A946554627
:1035400020E03A00109B5F46B3462E0006E0551C73
:10355000434639002020B04723002A005C1C0A990A
:103560009942F4D835005E46BB46109437004C466D
:10357000A946554606E01D000134561C43465946EF
:10358000C84732002078002804D0002FF4D06B1EEA
:10359000002DF0D117004D460B9B002B03D1119B42
:1035A0000133119354E50A9F109B06E0561C4346D5
:1035B00059462020A847230032005C1C9F42F5D8C2
:1035C0001700ECE721231C431C9B1A1D1C921B684F
:1035D0000093059408230493534603931023029306
:1035E0000023019343463A0059462800FFF79CF810
:1035F0000700119B013311932AE57C1C43463A00D6
:1036000059462520A847119B0133119327001FE538
:103610007C1C43463A005946A847119B013311933D
:10362000270015E50A4B9A4610E5AA46474502D3FE
:1036300043465A1E00E03A00434659460020D04710
:10364000380013B0F0BCBB46B246A946A046F0BD58
:103650003525001000B585B002900391012100933B
:1036600013004A4202A90248FFF7E2FC05B000BD80
:103670003725001001480421014B18476003002042
:10368000A536001010B5010018231B8814221088DD
:10369000984710BD10B5010018231B88162210880A
:1036A000984710BDF0B5C64600B507000E000025CE
:1036B0000123984600E00135B5420AD2AC003C191E
:1036C0002068FFF7DFFF20600028F4D10023984630
:1036D000F1E7404680BCB846F0BD0000124A936F47
:1036E0009B0815D29066D166002905D0FFE7FFE759
:1036F000FFE7516F106F704704B580210906C217AC
:103700005140002800D0C84304F07EFE002104BDD3
:10371000F0B5146E556E576F166FFFF7E3FF146622
:10372000556657671667F0BD000000D0114A936FC9
:103730009B0813D210665166002905D0FFE7FFE70A
:10374000FFE7516F106F704704B5002801D00020CB
:10375000C04304F059FE002104BDC046F0B5146E0C
:10376000556E576F166FFFF7E5FF1466556657677E
:103770001667F0BD000000D094464E4A926F920842
:10378000624601D230E0C046F0B54A4EB56F6D08D2
:10379000FCD3346E756E776F366F00F025F8944663
:1037A000444A14665566576716676246F0BDC046C0
:1037B0009446404A926F9208624601D258E0C04651
:1037C000F0B53C4EB56F6D08FCD3346E756E776FF7
:1037D000366F00F04DF89446364A146655665767C2
:1037E00016676246F0BDC046002B24DB11D00029CD
:1037F0003EDA00B5C943404200D1013100F038F84B
:10380000C943404200D10131DB43524200D1013370
:1038100000BD002AEBD1002801D1002905D00020ED
:10382000C90FC90701D1C043410800B504F0E4FD48
:103830000022002300BD00B500290ADBDB43524211
:1038400000D1013300F014F8C943404200D10131E6
:1038500000BDC943404200D10131DB43524200D197
:10386000013300F005F8DB43524200D1013300BDC3
:10387000002923D1002B18D1002A0CD0BC460D4FB3
:1038800038667A6600210023FFE7FFE7FFE77A6FDB
:10389000386F67467047002801D00748010000B51F
:1038A00004F0AAFD0022002300BD02000B0000204E
:1038B00000217047000000D0FFFFFFFF002B00D069
:1038C000BFE0130C28D1002AE7D080B4114F39662D
:1038D0007A66FFE7FFE730B4040C7B6F396F1B0497
:1038E00023433B667A66FFE7FFE7FFE7C04684B203
:1038F0007B6F3D6F1B0423433B667A66FFE7FFE760
:10390000C04600232C042D0C7A6F386F00196941D2
:10391000B0BC7047000000D0F0B594460025140EEE
:1039200001D112020835140F01D112010435940F90
:1039300001D192000235D40F01D152000135D40BD0
:103940000134254F7C66254C3C660E0C93B2FFE794
:10395000FFE7FFE73C6F6643360C7703BE467343D1
:10396000DF0B5B04C01AB941130C7343DB18C91A8F
:10397000CE086643360CB64493B273431F0F1B0147
:10398000C01AB941130C73431F0B1B05C01AB94170
:10399000860D8F023E436643360C092D24DB520A06
:1039A0007243801A7703460A6643360C16235B1B64
:1039B000DE40DF40BF1964466643821B7046043513
:1039C00006330100D940A840C01900D30131A242FA
:1039D00006D20023F0BD0000000000D0FFFFFFFF73
:1039E000121B0130F3D3F1E709277F1BFE40644629
:1039F000A2B27243801A00D20139220C7243130C16
:103A00001204821A99410B007046043513370100E5
:103A1000F940A840801900D30131002B02D1A24205
:103A20000AD2F0BD013000D30131121BFAD2013BA2
:103A3000F8D1A24200D2F0BD013000D30131121BF7
:103A4000F7E7F0B51C0C00D080E00CB400251C0A90
:103A500004D11B02160E3343120208351C0B04D18D
:103A60001B01160F3343120104359C0B04D19B003C
:103A7000960F334392000235DC0B02D192185B4162
:103A800001351C00971864410134464F7C66464C52
:103A90003C660E0CFFE7FFE7FFE7C0463C6F66435E
:103AA000360C7703BE4697B27743C01B00D201396C
:103AB000C01B00D201399FB27743C91BC91B170C29
:103AC00077437E04FF0B801BB941CE086643360C5A
:103AD0000C2D33DBB644120B1F053A431B0B97B278
:103AE0007743C01B00D201399FB27743C91B170C23
:103AF00077433E043F0C801BB941860D8F023E4345
:103B0000664329277F1BFE400C3D7746AF40BF1917
:103B100030BCA2B2ABB272437343801A9941220CFB
:103B20007243130C1204801A994102000B000137F2
:103B3000001BA941F9D2781E0021F0BD0C277F1B84
:103B4000FE4077467F0BAF40FF19E0E700245D1C85
:103B500007D0144F7D663966FFE7FFE7FFE7FFE711
:103B60003C6F95B29EB265436643401BB141150C54
:103B70001E0C6543664336042F0C3E432D04401B48
:103B8000B141994204D202000B0020000021F0BD97
:103B900001D19042F7D3801A994101349942F2D36E
:103BA000F6E70000000000D0FFFFFFFF4840414063
:103BB000484018B41B4B5B68FC46019308BD04DF0A
:103BC000873E001018B4174B1B68FC46019308BDD4
:103BD00000DF913E00109446134A926F920809D27A
:103BE000624618B40F4BDB68FC46019308BD0CDF3E
:103BF000494100100C4AF0B5146E556E576F166FA0
:103C00006246FFF7EEFF084A146655665767166767
:103C1000F0BD18B4034B9B68FC46019308BD08DF58
:103C2000ED3F0010DC1E0020000000D0FFB550402A
:103C30004240504059404B40594000E0FFB5154FBD
:103C40004C00640D03D0BC4204D10C0314D80020F6
:103C5000090D09055C00640D03D0BC4204D11C03AE
:103C60000AD800221B0D1B0501264B4009D44B40EE
:103C700003D58B4200D18242FFBD9942FCD19042D4
:103C8000FFBD0B43DB1803431343F5D0C943491869
:103C9000FFBD0000FF07000000B5FFF7CFFF804128
:103CA00000BDC04600B5FFF7C9FF01D9002000BD27
:103CB000012000BD00B5FFF7B9FF01D9002000BD0C
:103CC000012000BD00B5FFF7B1FF804100BD01201C
:103CD00040054A00121804D85A00121801D80020D2
:103CE0007047012070470020704700000021002825
:103CF00005D17047C1174840401AFAD0C90713B51B
:103D0000064B1B6898470CBC441CA2401005120BC4
:103D10000349091B09051943114310BD1C2000204C
:103D20001F04000010B54C00620D8023D218DB0088
:103D3000D21A5B057E2A10DD9E3A13DACC170903EE
:103D4000490819435242D140640001341532202AF7
:103D500005DAD0400843604310BD002010BD08467E
:103D6000604310BDC80FC018013810BD18B4044B13
:103D70005B6AFC46019308BD24DFF9420010000095
:103D8000DC1E002070B513231C78012C14D0012CEC
:103D900014DC022C02DC1F4A1F4B9A641F48FFF7F9
:103DA00071FC1F4B186070BD99001A481A4A885060
:103DB00001331F2BF8D9EAE70023FAE71948FFF788
:103DC00069FC05001848FFF765FC023803789B0082
:103DD0007F2B19DD802229000F4800F0ABFB022C5D
:103DE000D7D1124B1A88B5231B029A4209D1104B26
:103DF0001A88104B9A4204D10F4B1A880F4B9A42E3
:103E0000C7D00020FEF7BAF90D4B0E4A32210E48FA
:103E1000FEF71AF94D3E0010DC1E00204C33000066
:103E20001C2000205344000053460000543800007A
:103E3000D8380000494600009C3800005946000070
:103E40009895001044960010F895001007B560464C
:103E5000002800D100BE01880A0A0230DF2AFAD108
:103E6000C9B2820804D3028840880004104300E0ED
:103E70000068024A5050039007BD0000DC1E00207D
:103E80000FB403BC0CBCF0B50124E407634000E0B0
:103E9000F0B50C0DCF0F661E3605891B640503D3E4
:103EA000C943404200D30131640D03D0661CF60AB9
:103EB00007D0E41B00207F00791C89078912803C11
:103EC00024031D0DDF0F6E1E36059B1B6D0503D3EE
:103ED000DB43524200D301336D0D03D06E1CF60A52
:103EE00007D0ED1B00227F007B1C9B079B12803DAF
:103EF0002D032F1B661B58D4A446202E46DA2037EC
:103F00001400BC401D00BD40F24033412A438018DC
:103F10005941CB0F05D0C943C043002264425041F0
:103F2000514162464D0D28D10D0D07D100281FD0FB
:103F3000241940414941013A0D0DF9D0640006D3DE
:103F4000013000D30131002C01D140084000013A7A
:103F50000BD4941CE40A04D112051144DB07194464
:103F6000F0BDD907204B194300E0D9070020F0BD70
:103F70000029DDD1002CDBD1F0BD0132C60740089D
:103F8000CD0728434908002EE1D0D9E73C2E29DA95
:103F9000203E40371400BC4000D00124F2401443BE
:103FA0001A00BB401C43D317ACE7AC46202F08DAFD
:103FB00020360400B4400D00B540F8403941284394
:103FC000A5E73C2F0CDA203F40360400B44000D077
:103FD0000124F84004430800B1400C43C117EAE74C
:103FE00010001900002494E70000F07FF0B50C0DDC
:103FF000661E3605891BE60A6405640D02D0651C41
:10400000ED0A04D0002001210905803C2403A446C8
:104010001C0D671E3F05DB1BE70A6405640D02D01B
:10402000651CED0A04D0002201231B05803C2403FB
:104030007740644497B484B296B27443070C7E43CD
:10404000150C6F4380B26843361802D30120000478
:104050003F183004350C00197D41844688B29AB26D
:1040600050430C0C62431F0C7C438EB27E4392196A
:1040700002D301263604A4191604170C361867411A
:1040800001BC81B29AB25143040C62431B0C5C43E5
:1040900080B25843121802D30120000424181004DF
:1040A000130C401863412D185E410020474106BCA7
:1040B00088B293B258430C0C6343120C544389B238
:1040C00051435B1802D301210904641819041A0C26
:1040D000091862416D1856410020474118BCF90289
:1040E000720D1143F0026A0D1043ED020A0D03D167
:1040F0006D1940414941013B124E9B1B7600B34272
:104100000ED26D0007D3013000267141664635435B
:1041100001D1400840001B05C918E4072144F0BD47
:104120000BDA013306D1013004D101314F0D01D03A
:104130004908F2E7E1070020F0BD01363105002013
:10414000EBE70000FF030000F0B51C0D671E3F0504
:10415000DB1BE70A6405640D02D0661CF60A04D076
:10416000002201231B05803C2403D0252D060026B8
:10417000F6432E661E096E66CE0FF619B446490048
:104180004F0D02D07E1CF60A03D000200021403FD4
:104190003F033E1BB600B444013F7F05C91B4908DD
:1041A0002E6F013676089C02950D25437543ED135D
:1041B0007543AD1301356D10F603761B0CB4CC02BC
:1041C000450D2C43A2B2B3B25A43270C7B43350CA6
:1041D0006F43A4B26C431B1902D3012424043F197A
:1041E0001C041D0CA4187D4124196D41009A91B244
:1041F000ACB26143170C7C432B0C5F4392B25A4321
:10420000A41802D301221204BF182204230C52184E
:104210007B41019C6C431B19520ED9010A43440196
:10422000A01A81B2B2B2514303145A43360C7343FD
:1042300087B27743D617D21900277E4136049B19DF
:104240001704160C7F185E417316ED18F301002653
:1042500080337541A90F06D16400690AE8055B0A3D
:10426000184309D22FE00422944480337541A90AEF
:10427000A8059B0A184326D3404149412404009ACB
:10428000019B0D005543641B4343E41A95B286B26B
:104290007543170C7E43030C5F4392B25A43B61822
:1042A00002D301221204BF183204330C52197B418D
:1042B00052429C41002C02D400220130514140085E
:1042C000CA071043490802B06246D7079210084B4C
:1042D000D218084B9A4203D212058918C919F0BDA9
:1042E0000020002A01DC3900F0BD01331905F5E793
:1042F000FD030000FE070000002200B5203200F0A0
:1043000004F8080000BD000000220B150AD410B507
:10431000944600F031F81414013400DA0021CB1770
:10432000144C20470020002170476244343A0CD4DA
:104330000C2A07DA04009140904052422032D440C7
:10434000214310BDD843D94310BD203207D40C46B9
:104350009440524220321141D040204310BD080009
:10436000C917203203D452422032104110BD180028
:10437000190010BD2B4300100A0DCC0F531E1B0556
:10438000C91A520503D3C943404200D30131520D2B
:1043900003D0531CDB0A07D0121B00206400611CF1
:1043A00089078912803A1203014BD21A7047000024
:1043B000FF03000051434343C9188C46110C83B2DC
:1043C0004B4310B4040C614392B280B25043624339
:1043D0001C041B0C001910BC59411304120CC0180A
:1043E000514161447047000070B513231D782A487D
:1043F000FFF750F90400012D11D0012D09DDA31E96
:104400001B789B007F2B40DD80222100234800F099
:1044100091F82348FFF736F9224B186070BD5422FB
:1044200001001E4800F086F81F4B1A881F4B9A4265
:104430001CD1A7239B011A881D4B9A4216D11D4BF4
:104440001A881D4B9A4211D11C4B1A8894239B0148
:104450009A420BD11A4B1A881A4B9A4206D11A4B20
:104460001A681A4B9A4201D1152307E01848FDF744
:1044700085FE99001748094A885001331F2BF8D947
:10448000144A064B1A62DA61B7E7134B134A42210A
:104490001348FDF7D9FDC0465346000020200020F8
:1044A0004C3300001C200020EE290000C40F000047
:1044B000C20D0000962B0000C0B50000182B0000B4
:1044C000CC2A000010B50000FC2C000051ED8764E0
:1044D0001C870010E544001058960010D896001074
:1044E0008C96001007B56046002800D100BE0188F8
:1044F0000A0A0230DF2AFAD1C9B2820804D302883C
:1045000040880004104300E00068024A50500390C5
:1045100007BD00002020002001480421014B18475E
:1045200070030020A5360010014B1B6818470000DF
:1045300070030020014B5B681847000070030020E7
:1045400010B50300080011001B68984710BD00005B
:10455000F8B507000D001600437C002B02D00024A4
:1045600000200CE003681100280098472DE03B7CF8
:1045700010E0022115483B689847601C0134B442A2
:1045800014DA002CF3DD2B19013B1B780D3B5A424A
:104590005341DBB22A5D0A2AF0D1002BEED1A042B2
:1045A000E7DA211A28183B689847E2E7B04203DAB5
:1045B000311A28183B689847002E06DDAD19013DD9
:1045C0002B780D3B5A4253413B74F8BD6097001065
:1045D00070B505000368002B16D00C4B1C6805E075
:1045E000290004C92000FFF7B3FFE468002C09D0BC
:1045F0002368002BF9D0064B1B68002BF0D0A34298
:10460000F3D1EDE700232B6070BDC046001C0020F5
:10461000481E002070B505000C000B68802B05D0EB
:1046200021684B1C23606418257170BD0800FFF7DA
:10463000CFFFF5E7F0B583B007000E0000920193BD
:1046400028E0A368002B04D03100380098470028E8
:1046500027DCE468002C06D0134B1D68002DF0D039
:10466000A542F6D1EDE70099019A104B5B6A9A4298
:1046700009D80E48806A88420FD29A4201D001239D
:1046800002E0002300E00023002B08D101200021DC
:10469000FDF7F6F8064B1C68DCE70123F4E7012080
:1046A000404203B0F0BDC046481E00200040054017
:1046B000001C002010B582B0D0231B0600241C571C
:1046C00001A9074803F0A8FE002806D1019B9C42DF
:1046D00003D0034803F0B0FE012002B010BDC04675
:1046E000000C002010B5024803F07EFE10BDC0464D
:1046F000000C0020F0B5CE46474680B583B00600DA
:104700000D0090461C00FFF7D5FF81466B1C05D0BD
:10471000002C08D0194F1A4B1C6807E0300003F03A
:1047200067FD0500F4E7174FF5E7E468002C17D0A4
:104730002368002BF9D0144B1B68002B01D0A34237
:10474000F3D12A0031002000B8474346002BECD0BB
:104750006B46D91D0A230B7001222000B847E4E7FD
:104760004B46002B07D16B1E9D41E8B203B0C0BC85
:10477000B946B046F0BDFFF7B5FFF4E7414500107C
:10478000001C002051450010481E002010B582B0CA
:1047900004006B46D81D0470002300220121FFF79E
:1047A000A9FF200002B010BD10B5030008001100E1
:1047B000002B05D1044B1A685B68FFF73BFF10BD67
:1047C00001204042FBE7C046488E001010B50300B0
:1047D00008001400013B012B06D800230022210011
:1047E000FFF788FF200010BD01204042FBE70000DA
:1047F000094A01E00C331A001368002B08D08342E9
:10480000F8D1002907D1C36813600023C36002E018
:10481000002900D010607047001C002010B5064B26
:104820001C6801E09847E468002C03D06368002B03
:10483000F8D1F8E710BDC046001C002070B5050097
:1048400003F0D6FC04000023012201002800FFF73A
:1048500051FFFFF7E3FF200070BD000070B5A2B06C
:1048600004000E00FFF726FF05008422002101A8A6
:10487000FFF75AFE3300220001A90848FEF7EAFEBE
:10488000040001A8FFF7A4FEFFF7C8FF002D02D126
:10489000200022B070BDFFF725FFF9E71546001094
:1048A0000FB400B583B004A901C90191FFF7D6FF89
:1048B00003B008BC04B01847F0B583B005000E0083
:1048C00000240FE06B46D91D0D230B70002000283B
:1048D00016D193699B06FCD40B781360013001312B
:1048E000F5E70134B44219DA0D4B1A682F5D0D4B10
:1048F000D31859424B415B000B495B5EBB42E1D090
:104900006B46D91D0F7000200028EAD193699B06E1
:10491000FCD40B78136001300131F5E703B0F0BD32
:10492000402100200080FCBF38210020F0B583B07A
:1049300006000F00002004E06B4607331B7823704D
:104940002800B84215DA0E4B1A689369102421002A
:1049500019401C420DD1451C34186B46D81D002946
:10496000EAD19369DB06FCD413680370013101308E
:10497000F5E7002801D003B0F0BD0338FBE7C046DF
:104980004021002070B515001C000B4B1860FDF78E
:10499000F9FA002D06DA002C09DA01210748FFF7A1
:1049A00027FF70BD02212800FBF7A8FEF3E70221D4
:1049B0002000FBF7A3FEF0E7402100208003002049
:1049C00010B5002210E09A00124950581249505078
:1049D0000133022BF7D911480021FCF751FF0E4B90
:1049E00000221A6010BD0132022A08D893000A4939
:1049F000595808481B589942F5D00023E9E7064B5F
:104A000000221A600648FEF73DFE03000021002048
:104A10009847C04688970010200C0020400D0300E6
:104A20005542000010B51920FBF780FED0231B066D
:104A3000802292045A620548054B1860E121012347
:104A400000224902FFF79EFF10BDC0460040034010
:104A50003C210020002805D0D0231B068022920490
:104A60005A617047D0231B06802292049A61F8E7AE
:104A700030B505004B0617D0012300E001330F2BA2
:104A800010D8DA00D0188000084C0019D218920013
:104A9000125D002AF2D0C27FAA42EFD182788A4208
:104AA000ECD100E0002030BD0048FCE7041C0020F1
:104AB00010B5012300200F2B0FD8DA00D118880081
:104AC00006494018D2189400625C002A01D00133D4
:104AD000F1E7591E03002033197010BD041C00209B
:104AE00010B5032807D01248124B8360124B436065
:104AF000124BC36010BDFFF7DBFF002810D020234E
:104B0000C35CDA000E49511881600E498C4662443C
:104B1000426002339B01094A94466344C360E9E75B
:104B20000C21094B094AFF310948FDF78DFAC046AF
:104B3000041C002080001050000110508001105013
:104B40008800105008001050AC97001038990010E1
:104B5000B0970010F0B583B00C00C57F8678878AC7
:104B600000F082FB0123009323003A00310028006B
:104B700001F006FA03B0F0BD10B50C00064B9865C5
:104B8000080000F0FBFB002800D110BD0021200030
:104B9000FFF7E0FFF9E7C0460030115070B5144B45
:104BA0009D6DEB0701D4012409E001239D431149C8
:104BB0004B681B680120FFF7DFFFF4E701340F2C7F
:104BC0000FD8002D0DD06300012098402842F5D069
:104BD0008543E3001B199900064BC918FFF7CCFF6A
:104BE000ECE7002D00D170BD29000348FDF7C6FA9F
:104BF00000001150041C00200898001010B50A4B4A
:104C00001B7C002B04D0094BDB6C9B0706D410BD2A
:104C1000074B084AA4210848FDF716FA002102486C
:104C2000FFF798FFF3E7C046041C00200000115076
:104C3000209800109C990010B097001070B5294A78
:104C40009823D458973B1D00254023420CD0136D68
:104C50001B0A9B071BD00121002001F0A4F9224B65
:104C6000C02292001A650125E30615D4230718D443
:104C700063051FD4630605D540231D431A4B8022CC
:104C800012051A65A30621D4A54226D170BD0121C3
:104C9000002001F099F9E2E710231D43FFF77EFFA2
:104CA000E4E708231D43104B8022D2021A65FFF768
:104CB000A5FFDDE78023DB001D430B4B802292051F
:104CC0001A6502210948FFF745FFD3E7064B80220A
:104CD00012061A650648FDF751FA29006140054899
:104CE000FDF74CFA0000115000301150041C002058
:104CF0002C9800104098001010B5002817D100F033
:104D00008DFA0E4C0C23A3670D490520FBF72EFEF0
:104D10009022920000210B48FFF706FC0323236436
:104D2000094BE3649023094AE250012010BDB221EF
:104D3000074B084A49000848FDF786F90000115062
:104D40003D4C0010041C0020008600207B04000065
:104D50005498001018990010B097001010B5002852
:104D600000D110BDC121034B034A49000348FDF7A0
:104D70006BF9C046549800108C990010B097001041
:104D800010B5002808D1084B186DC0239B001840AF
:104D9000431E9841C0B210BD8A21044B044AFF3122
:104DA0000448FDF751F9C046000011505498001016
:104DB00074990010B097001010B5002809D10B4B62
:104DC0001A6D120A03231340012B0CD0022B07D1BA
:104DD00010BD9021064B074AFF310748FDF734F913
:104DE0000648FDF7CBF91800F2E7C0460000115065
:104DF0005498001060990010B0970010609800104F
:104E000070B505000020FFF7D7FF0400280000F070
:104E1000D9FD201A431E9841C0B270BDF0B5D646E8
:104E20004F464646C0B504000800994608A90D78CB
:104E300009A90E786768002F4DD0A368002B51D0C8
:104E4000E3689846002B54D07F23190011408A460E
:104E5000D1098C46A270E0776170134250D17E3B3D
:104E6000E3704B46A383A5772D4B424653403F2228
:104E700090461A404146194244D1AD061D43A02335
:104E80001B061D43002E01D0721E12042A433A60F5
:104E900001232370002E19D053461D040543634699
:104EA000012B36D1FFF7ACFF002802D08023DB04B2
:104EB0001D432022A35C9B001A498C4663445D601D
:104EC000A25C013201239340174A5365E0BCBA4605
:104ED000B146A846F0BD9121144B154A490015482A
:104EE000FDF7B2F82421144B114AFF311148FDF7A8
:104EF000ABF89221114B0E4A49000E48FDF7A4F879
:104F00000023ADE75D310E4B094A49000948FDF722
:104F10009BF8A7210B4B064A49000648FDF794F879
:104F20000000105000001150002011507098001027
:104F300024990010B0970010889800109C980010D9
:104F4000AC980010C89800107047000010B50028F9
:104F500004D101210520FBF7F9FC10BDD721034B3B
:104F6000034A49000348FDF76FF8C0465498001003
:104F700050990010B097001070B582B00E00140068
:104F8000D0788007800FFFF7ABFD22796179072386
:104F90000B401B021343E578AD07AD0FA278A17952
:104FA000019100953100FFF739FF012002B070BD7B
:104FB000F0B5D6464F464646C0B582B00E00150045
:104FC0009A460AAB1B8899467F271740D309984613
:104FD00011003000FFF74CFD041E1CD08378AB425B
:104FE0000AD0002F1ED1838B00220192827F009273
:104FF0002A003100FFF712FF1B4B9C4219D04A4692
:105000005146200000F096F9012002B0E0BCBA46FB
:10501000B146A846F0BDDC21144B154AFF311548B6
:10502000FDF712F8F021144B114A49001148FDF721
:105030000BF84A465146200000F07CF93B0433430C
:105040000E4A13604346002B0AD00D4C3000FFF788
:10505000D7FE002806D040232343084AD364D3E771
:10506000084CF3E70023F7E7041C0020AC9700107E
:1050700008990010B0970010DC9800100000115043
:10508000098600200586002030B583B00D00110090
:1050900008221548FFF74EFA0020FFF721FD040013
:1050A000838B0022019200922900FFF7B7FE23783C
:1050B000002B10D008236382073B23740B4B1D6029
:1050C0002800FFF79DFE00280BD0094A074BDA6441
:1050D000012003B030BD074B074A08490848FCF7D8
:1050E000B3FF084AF2E7C04600001050000011501C
:1050F00043860020E8980010F89800100A0200008B
:10510000B097001003860020F8B504000F00438A12
:10511000828B1E1C934200D9161CB6B29B1B638265
:105120008025ED003543E378002B13D080229201D7
:10513000154301225340E3706378002B0CD0638A3F
:10514000002B02D18023DB011D43002F00D02D0452
:105150002800F8BD0022EBE7B801E3689C466044F4
:105160003200A169FFF7E6F9A3699C466644A6618F
:1051700080231B021D43E2E770B5040083681B68AF
:10518000002900D01B0C9D05AD0D6278002A11D1BD
:105190001B0409D4A38A5B19A382A38BAB4201D958
:1051A00000236382280070BD0E4B0F4AD7210F48A1
:1051B000FCF74AFF1B040ED58901E3689C46614455
:1051C0002A00A069FFF7B6F9A38A5B19A382A36935
:1051D0005B19A361E1E7064B034ADE210348FCF7B4
:1051E00033FFC046B0990010D49A0010D099001037
:1051F000289A001010B5040083681B680021FFF78F
:10520000BBFF63681B685B0002D5A38B834200D0A1
:1052100010BD01212000FFF7AFFFF9E710B5802393
:105220005B040C4A13600C4A13600C4B9A68802391
:105230005B049343F9D10A4C9C2200212000FFF724
:1052400073F98022520100210648FFF76DF9092306
:10525000636710BD00E0004000F0004000C0004067
:105260000000115000001050002303744382838219
:105270008361704710B5002902D083681B6819400C
:10528000002A09D01143530506D5826813685B05CF
:1052900005D4084B0B4013608368196010BD8378F8
:1052A0007F211940DB099B00034A9A580348FCF709
:1052B00065FFC046FFFBFFFF94030020489A0010E3
:1052C00070B5040043681E680021FFF71DFF8025AC
:1052D0006D010543144B1B6C9B0704D4A378DB09B9
:1052E00014D1013300E00023628A002A01D0002B90
:1052F0000ED00E4B1E4080239B0533436268136023
:105300002A0000212000FFF7B5FF70BD0023EBE766
:1053100001212000FFF7F8FE0543054B1E40A023A6
:10532000DB053343EAE7C04600001150FFFFFFAF43
:10533000FFFFFFDF70B504000D001600037C002B9B
:1053400009D166820023A38201332374A561200062
:10535000FFF7B6FF70BD83787F211940DB099B0002
:10536000044A9A580448FFF79BFA2000FFF77CFF95
:10537000E7E7C04694030020689A001070B5040067
:10538000057C002D06D0FFF735FF638A002B08D17E
:10539000280070BD81787F231940044A0448FCF737
:1053A000EDFE2000FFF78CFF0025F1E794030020BD
:1053B000A09A0010F8B5002805D00527002804D0D1
:1053C000012600240EE00127F8E70426F9E7DC2295
:1053D0000C490D48FFF764FA00235B7B002B0FD0CC
:1053E0000134E4B2B4420AD2E519EDB2002DEED098
:1053F0006A1E93009B181B01044A9B18EDE7FF25CA
:105400002800F8BD289C0010E49A0010181900200C
:1054100000B583B0002A16D1154B1B68019301AB70
:105420001B78DB0716D501AB5B785A0715D45B08F0
:10543000012213400F4AD37001AB9B78DB060ED4D8
:10544000012003B000BD0C4A0C490D48FFF728FAB3
:105450000020F6E701F06AF9F3E70223EAE7917822
:105460005078084B142200F0D1FF0120E9E7C04634
:1054700018180020980D00208A020000E09B001000
:10548000E49A0010355E001010B582B0002A0AD1EF
:10549000104B1B68019301AB9B78DB060AD40124F7
:1054A000200002B010BD0C4A0C490D48FFF7F8F976
:1054B0000024F5E70B4B997858780B4B142200F039
:1054C000A5FF041EECD1094A04490548FFF7E8F995
:1054D000E6E7C04618180020790200005C9B001027
:1054E000E49A0010980D0020C955001081020000B8
:1054F00010B582B02C4B1879093843425841C0B2DC
:10550000FFF758FF0400FF2838D000283DD0421E86
:1055100093009B181B01254A9B18254A1178197086
:105520005178597091789970D278DA701A7B01218C
:105530000A431A731C4AD2791A726B461B781F22CF
:1055400093436A4613701378602293436A4613703C
:1055500012787F2313406A461370052353705480DA
:1055600000239380D380134B00226946002000F073
:10557000B1FE041E10D0200002B010BD0E4A0F492B
:105580000F48FFF78DF90024F5E7DC220D490C48A0
:10559000FFF786F90023C0E7CB22920007490848AD
:1055A000FFF77EF9E7E7C046181800201819002019
:1055B000980D00205D5E001011030000009D00109A
:1055C000E49A0010289C001010B5002A07D1FFF7BC
:1055D0008FFF074B587801F0A9F8012010BD9B22DE
:1055E000920004490448FFF75BF90020F6E7C04643
:1055F000980D00203C9B0010E49A001070B582B01A
:105600000400002A20D1002825D0421E93009B18B8
:105610001B01174A9B18174A118999805189D98013
:10562000917B5972D17B9972117CD9726946124B68
:10563000080060CB60C0114B200000F04BFE041E40
:1056400010D0200002B070BD0D4A0E490E48FFF781
:1056500027F90024F5E7DC220C490B48FFF720F975
:105660000023D8E70A4A07490748FFF719F9E8E78E
:105670001819002018180020FC9A001095560010E8
:105680005A030000C49C0010E49A0010289C0010EB
:105690007603000010B582B0002A27D11D4B5B882D
:1056A00080225200934228D86A4612781F218A43EA
:1056B00069460A700A7860218A4369460A70097847
:1056C000802252420A4369460A7006224A70FB321F
:1056D000FF324A8000228A80CB800F4B0D4A00F0B7
:1056E000F9FD041E10D0200002B010BD0B4A0C4979
:1056F0000C48FFF7D5F80024F5E70B4A084909489C
:10570000FFF7CEF80024EEE7084A05490548FFF701
:10571000C7F8E8E718180020495900107E03000078
:10572000A09C0010E49A0010870300009A03000078
:10573000F0B5D6464F464646C0B506000F00904627
:105740000024042C5FD825000134E4B2AB005B19BF
:105750001B012F4A9B5CB342F3D1002F06D0AB0054
:105760005B191B01D3185B78BB42EAD14346002B7F
:1057700007D0AB005B191B01254AD3189B78434522
:10578000DFD1AB005B191B01214AD3185B7B002BD7
:10579000D7D0204B002B02D02000FAF7F5FE0023D3
:1057A00099460CE04B469B004B449B001A4AD31889
:1057B0001B69200098474B460133DBB299464B46A4
:1057C000032BEFD9AB009946581900010830104B54
:1057D0009A46504406301022FF21FEF7A5FE4B46A4
:1057E000581900011830504406301222FF21FEF7EC
:1057F0009BFE21003000FFF7A7FB4D442D015544CF
:1058000000236B739DE7E0BCBA46B146A846F0BDE5
:105810001819002089050010189D0010F8B5DE4603
:1058200057464E464546E0B582460D00031E0ED053
:10583000013B9F00FF183F013D4BFF18AA78EB7812
:105840001B0213439846A84429786D183EE0DC22D9
:1058500038493948FFF724F80027EFE7EB789946F5
:105860002B78ED1839E0FA22920034493248FFF7DC
:1058700017F800200DE0FE22920030492E48FFF775
:105880000FF8002005E02E4A2C492B48FFF708F8B6
:105890000020F0BCBB46B246A946A046F8BD002297
:1058A00091450BD9AB789B18DBB2F918897BFF299E
:1058B000E9D1FB189C730132D2B2F1E72300320028
:1058C000290038001E3002F00FF8AD1945452CD2E2
:1058D0006B780B2BC2D0012399466B78042BC2D175
:1058E00043465A1B92B24946280002F012F80600BD
:1058F0000828C0D96B79092B03D17C78002CE4D11E
:1059000000E00024032CE0D8A200121992000D4BF5
:105910009A1853689B46387833002A005146D84776
:105920000028BCD10134E4B2ECE70120B1E7C04665
:1059300018190020289C0010E49A0010449C0010C4
:1059400013040000189D001030B583B00500002A34
:1059500014D11449FFF762FF041E16D06946124B9A
:1059600008330A0011CB11C2104B0022280000F0AE
:10597000B1FC041E0FD0200003B030BD0C4A0D490D
:105980000D48FEF78DFF0024F5E70C4A09490A4847
:10599000FEF786FFEFE70A4A06490748FEF780FF51
:1059A000E9E7C04618180020FC9A00106560001056
:1059B000A2030000809C0010E49A0010A6030000DF
:1059C000B7030000002807D0013883001818000131
:1059D000034BC018C0787047024BD878FBE7C0462D
:1059E00018190020980D0020014B18787047C04608
:1059F00044210020F0B5C64600B582B00190384B76
:105A00001F78002F04D0380002B080BCB846F0BD2B
:105A1000C822520000213348FEF786FD05220021EE
:105A20003148FEF781FD314C20001C30FCF75EFA56
:105A3000200002F02FF82E4B1C600026042E2FD8D9
:105A4000B30098469C1924014034264D641904344F
:105A50002000FCF725FA43469B191B01EB18DC6478
:105A6000002C16D0B400A019000108301D4D4019BB
:105A700006301022FF21FEF757FDA419200118302F
:105A8000401906301222FF21FEF74EFD0136F6B214
:105A9000D4E79522520017491748FEF701FFB2E7F5
:105AA000002407E0A3001B199B00144A9B58984749
:105AB0000134E4B2032CF5D90198FFF71DF9071E54
:105AC00006D00198FFF742FA054B01221A709AE7B7
:105AD0009C22520007490848FEF7E2FE93E7C046C1
