:020000041000EA
:1000000000B5324B212058609868022188439860DF
:10001000D860186158612E4B002199600221596106
:100020000121F02299502B49196001219960352056
:1000300000F044F80222904214D00621196600F024
:1000400034F8196E01211966002018661A6600F04E
:100050002CF8196E196E196E052000F02FF8012189
:100060000842F9D1002199601B49196000215960AB
:100070001A491B48016001219960EB211966A021F2
:10008000196600F012F800219960164914480160C1
:100090000121996001BC002800D000471248134993
:1000A000086003C880F30888084703B5996A0420EC
:1000B0000142FBD001200142F8D103BD02B5186610
:1000C0001866FFF7F2FF186E186E02BD00000240BE
:1000D000000000180000070000035F00212200005C
:1000E000F4000018222000A00001001008ED00E03C
:1000F00000000000000000000000000074B24E7A12
:1001000000200420F7010010C3010010C5010010F9
:10011000C1010010C1010010C1010010C101001097
:10012000C1010010C1010010C1010010C701001081
:10013000C1010010C1010010C9010010CB01001065
:10014000CD010010CD010010CD010010CD01001037
:10015000CD010010CD010010CD010010CD01001027
:10016000CD010010CD010010CD010010CD01001017
:10017000CD010010CD010010CD010010CD01001007
:10018000CD010010CD010010CD010010CD010010F7
:10019000CD010010CD010010CD010010CD010010E7
:1001A000CD010010CD010010CD010010CD010010D7
:1001B000CD010010CD010010CD010010CD010010C7
:1001C00000BE00BE00BE00BE00BE00BE00F04BF888
:1001D000103800BEF2EB8871389400106094001063
:1001E0003402001090A31AE700202149086006C8D5
:1001F00081F3088810471F48006800282FD10DA4FC
:100200000ECC002902D000F012F8F9E71A491B4A77
:10021000002000E001C19142FCD1194988471949E9
:1002200088471949884700BEFDE701C901C29A42C3
:10023000FBD3704760940010C00000201C0B00200E
:10024000BC9E00100000042000000420BC9E001092
:1002500000100420001004200000000070470B482C
:1002600003F0E8FF0047EFF30580C0B270470000DD
:1002700008ED00E0000000D0200B0020540F00200B
:10028000052C001079030010C12B001057560000F8
:1002900006005250ABB36053A093001006005250BA
:1002A000861C0302B0930010060052505422A29DF7
:1002B000B893001005005250DE65F468BC9E001033
:1002C000F8B5C04610B5064C2378002B07D1054B76
:1002D000002B02D0044800E000BF0123237010BDB2
:1002E000200C00200000000050700010044B10B5DE
:1002F000002B03D00349044800E000BF10BDC046F6
:1003000000000000240C00205070001010B582B0D6
:100310001549164802F070FB0321042000F0A2FEEC
:100320000321052000F09EFE00220121042000F0A0
:10033000B1FE00220121052000F0ACFEFA20800071
:1003400001F0A8FD6B46DC1D200000F011FE2378B3
:10035000012B04D1064805F063FD02B010BD05482D
:1003600005F05EFDF6E7C046801A06008002002018
:100370006C70001050700010F0B5D6464F464646DF
:10038000C0B592B005F058FD9B4B1B6898680023E0
:100390000222002106F0DAF8FA20800001F07AFD4E
:1003A00000F038FA002000F0FFFAFFF7AFFF0EAAC6
:1003B0000DA90CA800F07CFC0EAA0AA909A800F05F
:1003C00077FC82E0FC2189050F9805F03AFA041CBD
:1003D0000F90FC218905109805F033FA051C109048
:1003E000FC218905119805F02CFA1190281C05F0C4
:1003F00095FA06000F00201C05F090FA32003B0031
:1004000004F0F2FA04F0AEFA041C002105F072FACE
:10041000002800D0DBE0201C05F080FA04000D006D
:1004200004F0CCFA0022754B04F0D7F90022744B8B
:1004300004F0ACF904F05AFA05902000290004F009
:10044000A7FA00226F4B04F0C8F900226E4B04F0AB
:100450009DF904F04BFA0700002000F0A5FAF826F9
:10046000360232005021282000F0EEF9B9B26B4676
:10047000988A320000F0E8F9644A654B20002900B0
:1004800004F0ABF904F06EFA041C002105F038FA10
:10049000002800D1A6E0201C05F040FA02000B0065
:1004A0005C4906A803F09AFE5B4B00220292F822F8
:1004B000120201925A6800921B6806AA502150202D
:1004C00000F0E2F9642001F0E5FC11AA10A90FA8E0
:1004D00000F0EEFB0F9E0C99301C05F00BFA002883
:1004E00000D00C960999301C05F00AFA002800D0BB
:1004F0000996109D0D99281C05F0FCF9002800D0E4
:100500000D950A99281C05F0FBF9002800D00A95E2
:10051000119C0E99201C05F0EDF9002800D00E94D6
:100520000B99201C05F0ECF9002800D00B940C9BD3
:100530009946191C301C05F084F9071C0F900D9B7F
:100540009A46191C281C05F07CF9061C10900E9B7D
:100550009846191C201C05F074F9051C1190494699
:10056000099805F06EF9041C05F0D8F92B4A2C4BBC
:1005700004F08CF9002804D0211C381C05F06BF91C
:100580000F9051460A9805F05CF9041C05F0C6F975
:10059000224A234B04F07AF9002804D0211C301C95
:1005A00005F059F9109041460B9805F04AF9041CE2
:1005B00005F0B4F9194A1A4B04F068F9002800D183
:1005C00000E7211C281C05F046F91190FAE6201CD2
:1005D00005F0A4F9134A144B04F0D8F804F0C2F95A
:1005E000041C18E7201C05F099F902000B000F49C4
:1005F00006A803F0F3FD57E7C402002000003440D2
:1006000000004440000034C000005440E8C35CB027
:10061000DDA54C4080700010F0010020FCA9F1D253
:100620004D62503F6E861BF0F92119408870001012
:1006300010B5034B1888002100F0C1F910BDC04669
:10064000FC01002010B5064C2088002100F0B7F90D
:10065000052001F01FFC2088012100F0B0F910BD39
:100660000802002010B582B06B46DC1DD871064B25
:100670001888002100F0A3F901222100034806F0A8
:10068000D7FC02B010BDC0460002002000000440AC
:1006900070B504000D00054B1888012100F08FF99A
:1006A0002A002100024806F0C3FC70BD00020020B1
:1006B00000000440F8B5441C03780AE03900280023
:1006C000FFF7E6FFED1912E001F0E4FB250033002F
:1006D0002C005E1EF6B2002B12D02078FFF7C2FF6E
:1006E000A51C64787F231F0027402342E6D164B213
:1006F000002CECDA6C1C2878FF28E5D1F530E3E714
:10070000F8BDF0B5C64600B582B0060088461500B3
:100710001F002A20FFF7A6FF01AC00232370183624
:100720006670A3701835E57004212000FFF7B0FF54
:100730002B20FFF797FF43466370E77004212000EA
:10074000FFF7A6FF2C20FFF78DFF02B080BCB84654
:10075000F0BD82B0F0B5DE4657464E464546E0B5A0
:1007600083B093460DAC0D930FAB1B88984610AB2E
:100770001F88C0B2C9B225784219D2B263789A46AE
:10078000CB18DBB2013BDBB2013AD2B2FFF7B9FFC3
:10079000002399461DE03B0A6A46137157710221F6
:1007A00001A8FFF775FF0134A5420FD93300A3401C
:1007B0001B04F0D543461B0A6A4613716B4642463A
:1007C0005A71022101A8FFF763FFECE701239C4661
:1007D000E144CA4509D95B46203B524653434B444A
:1007E0005B000E9A9E5A0024DEE703B0F0BCBB46C5
:1007F000B246A946A046F0BC08BC02B018470000AB
:1008000010B5034B1888012100F0D9F810BDC0467F
:10081000FC01002010B500F00DF9FFF709FFFFF70C
:1008200011FF0648FFF746FF0548FFF743FF05485D
:10083000FFF740FFFFF7E4FF10BDC046DC83001068
:10084000188400102884001070B582B004000D00D8
:1008500016004F2801D89F2901D902B070BDFFF7BB
:10086000E7FEE0B2E9B24B1CDBB2421CD2B2FFF7AA
:1008700048FF330A6A4613715671022101A8FFF737
:1008800007FFFFF7BDFFE8E782B0F0B5CE46474669
:1008900080B585B005000F0016000D930FAB1B88C7
:1008A000994610AB1B889846FFF7C2FE10E0013650
:1008B00000250DE0434602934B4601930E9B0093A7
:1008C0000D9B39002800FFF744FF6519ADB20136D2
:1008D0003278002A0FD00DAB1C782B194F2BE9DD95
:1008E0000DA94B78DF19BFB2FB189F2B03DC202A20
:1008F000DDD00025DEE7FFF783FF05B0C0BCB946B9
:10090000B046F0BC08BC02B018470000F0B5C646BF
:1009100000B582B004000F0016001D0008AB1B8854
:1009200098464F2838D89F2936D88318502B02DD97
:100930005026361AB6B27B19A02B02DDA025ED1B7E
:10094000ADB2FFF775FEE0B2F9B28219D2B24B191F
:10095000DBB2013BDBB2013AD2B2FFF7D2FE01AB10
:100960004246120A1A7042465A700D4B18880121ED
:1009700000F025F80AE0022201A90A4806F058FB17
:10098000013CA4B2002CF6D1013DADB2002D01D046
:100990003400F7E7FFF734FF02B080BCB846F0BD83
:1009A000000200200000044000B583B00090A023A6
:1009B000502200210020FFF7A9FF03B000BD012352
:1009C0008340002903D0D022120653617047D02201
:1009D00012069361FAE770B504000D0000F074FB95
:1009E000002D05D10123A340D0221206936270BDD1
:1009F0000123A340D02212065362F8E710B50A4B38
:100A000018880121FFF7E7FF084B18880121FFF73D
:100A1000E2FF074C20880121FFF7DDFF208801213C
:100A2000FFF7CDFF10BDC0460802002000020020E5
:100A3000FC01002010B50A490A4801F01DFE0A4BCE
:100A40001868012100F00EFB084B1868012100F026
:100A500009FBFFF7D3FF064805F0B0F9002010BDF1
:100A6000001BB70000000440F80100200402002031
:100A70005484001030B587B00F226A4410700A4DBC
:100A8000012300936821280001F0E2FF17246C4441
:100A900000230093013322006821280001F0E4FFC5
:100AA000207807B030BDC0468002002000B585B078
:100AB0006B461873597300230093023303AA68210D
:100AC000024801F0C5FF05B000BDC046800200200D
:100AD00010B50020FFF7CEFFEA2801D0002010BD9E
:100AE0000120FCE7F0B5DE4657464E464546E0B5E8
:100AF00089B080468946924604AF0622002138001C
:100B000004F0E0FF0C22002101A804F0DBFF404AC2
:100B10001388013313803420FFF7ACFF060006ACC6
:100B200020703320FFF7A6FF60700002064336B244
:100B30003E803620FFF79EFF050020703520FFF72E
:100B400099FF6070000205432DB27D803820FFF7C9
:100B500091FF834620703720FFF78CFF60700402FE
:100B60005B461C4324B2BC80300003F0A7FE002289
:100B7000284B03F032FE0022FC239B0503F02DFEE0
:100B800003F0F0FE43461860280003F097FE0022B1
:100B9000204B03F022FE0022FC239B0503F01DFEE8
:100BA00003F0E0FE4B461860200003F087FE0022B1
:100BB000184B03F012FE0022FC239B0503F00DFEF0
:100BC00003F0D0FE041C5346186043461868002109
:100BD00004F088FE00280ED04B461868002104F06F
:100BE00081FE00280FD00021201C04F07BFE00288D
:100BF0000BD1013000E0012009B0F0BCBB46B24689
:100C0000A946A046F0BD0120F6E70020F4E7C04663
:100C10004C0F002000409F40F8B505000C00160066
:100C20001F0030217F20FFF741FF29000320FFF73D
:100C30003DFF21000420FFF739FF80214942314365
:100C4000C9B20520FFF732FF00217F20FFF72EFFFA
:100C50000320FFF70FFF040020210143C9B2032046
:100C6000FFF724FF052001F015F920239C43E1B292
:100C70000320FFF71BFF002408E03D1920003B3054
:100C8000C0B2FFF7F7FE28700134E4B2B442F4D3E7
:100C900030217F20FFF70AFF0520FFF7EBFE010060
:100CA0000520FFF703FF00217F20FFF7FFFEF8BDBF
:100CB000F0B5C64600B588B006000F009046062283
:100CC000002104A804F0FEFE0C22002101A804F07B
:100CD000F9FE1424002C0FD0012001F0DBF806AD42
:100CE0002B00012210218C20FFF796FF2B78DB07C9
:100CF00002D4013CE4B2EDE7002C52D104AC002355
:100D0000E05E03F0DBFD0022364B03F066FD0022BF
:100D1000354B03F062FD0022FC239B0503F05DFDD3
:100D200003F020FE30600223E05E03F0C7FD0022E6
:100D30002C4B03F052FD00222B4B03F04EFD002202
:100D4000FC239B0503F049FD03F00CFE38600423EF
:100D5000E05E03F0B3FD0022224B03F03EFD0022D3
:100D6000214B03F03AFD0022FC239B0503F035FDE7
:100D700003F0F8FD041C434618603068002104F0BD
:100D8000B1FD002825D03868002104F0ABFD002813
:100D900024D00021201C04F0A5FD002820D1013022
:100DA00018E006AC2300062211218C20FFF734FF47
:100DB00063781B0222781A4304AB1A80E178090297
:100DC000A2780A435A806179090222790A439A80FB
:100DD00094E7012008B080BCB846F0BD0120F9E7D7
:100DE0000020F7E7000010400000594070B50600F1
:100DF0000D00140030217F20FFF758FE310007203E
:100E0000FFF754FE29000820FFF750FE21000A20BA
:100E1000FFF74CFE81210920FFF748FE00217F20CB
:100E2000FFF744FE0320FFF725FE040020210143C5
:100E3000C9B20320FFF73AFE052001F02BF820236A
:100E40009C43E1B20320FFF731FE30217F20FFF702
:100E50002DFE0520FFF70EFE01000520FFF726FE00
:100E600000217F20FFF722FE70BD0000F0B585B0A5
:100E700000230393029301930025002600270024FA
:100E800018E001AA02A903A8FFF72CFE039804F0BA
:100E90003DFD80B23F18029804F038FD80B236184C
:100EA000019804F033FD80B22D180A2000F0F2FF03
:100EB0000134E4B21F2CE4D97F11044B1F8076115A
:100EC0005E806D119D8005B0F0BDC046000D002014
:100ED00010B582B001AC2300022200218C20FFF764
:100EE0009BFE2378482B02D0002002B010BD63780F
:100EF000092B01D00020F8E70120F6E710B500210A
:100F00007F20FFF7D3FD80210620FFF7CFFD0A20C9
:100F100000F0C0FF01210620FFF7C8FD20217F203F
:100F2000FFF7C4FD08210020FFF7C0FD3721012095
:100F3000FFF7BCFD00211020FFF7B8FD08211120AC
:100F4000FFF7B4FD33211420FFF7B0FD00217F200F
:100F5000FFF7ACFD642000F09DFFFFF787FFFFF770
:100F6000B7FF042231210C20FFF740FF10BD000025
:100F700010B50400FFF7ACFD00280DD1002323704D
:100F8000084BFE2292051A600023074A1360074AA5
:100F90001360074A136010BD01232370FFF7AEFFF3
:100FA000EEE7C0461C0D0020200D0020240D00207F
:100FB000280D0020EFF3108072B6034B1B68002B46
:100FC000FBD0BFF35F8F70472C0100D0BFF35F8F62
:100FD000024B00221A6080F3108870472C0100D069
:100FE000F8B506000C001500FFF7E4FFE308F7185A
:100FF000F15C07222240012393400B4205D1DBB272
:101000000B433B70FFF7E2FFF8BD2100280001F021
:1010100075FE0000034B1B6802201840431E9841D8
:10102000C0B2704700C00640002307E0054A9A1886
:101030009200BFF35F8F0021116001331F2BF5D9A0
:101040007047C04640000034054A1078431CDBB2AC
:101050001370172B02D9130010221A707047C04664
:101060000C02002010B58300084A944663441C68B3
:1010700040226240C02414408022520113431C606D
:10108000C000034B9C466044416010BD04C0014059
:101090000040014080000B4B9C46604400290DD06D
:1010A0000823002A0CD004221343026853400C2268
:1010B0001340802252011043036070470023F0E781
:1010C0000022F1E704C0014010B501238340D02283
:1010D0001206936293610521FFF7C4FF10BD000063
:1010E000074B9B68103080001950BFF35F8FBFF330
:1010F0005F8F044B0021196082F310887047C0464F
:1011000000ED00E0240100D010B5091A081F0A4BB9
:101110009C466144094A914208D8C30706D440104E
:101120004005400D064B184380B210BD054B064AE2
:101130009921064801F048FDFC070000FE0F000061
:1011400000E0FFFF6C840010B08600109C8400104B
:1011500010B5091A04394C08090B08D14905490D85
:10116000064A11430180064B2343438010BD054BC3
:10117000054AA121054801F027FDC04600F0FFFF08
:1011800000F8FFFFDC840010848600109C840010AF
:1011900001238340034A10681840431E9841C0B29F
:1011A0007047C04600E100E0002904D0034B1860FE
:1011B000034B18607047034B1860FBE780E200E0C8
:1011C00000E100E080E100E010B501238340180059
:1011D000FFF7EAFF10BD0000024B9B681030800053
:1011E000C058704700ED00E070B504000D00EFF34B
:1011F000108672B60C4B1B68002BFBD0BFF35F8FC1
:101200002000FFF7E9FF094B984201D0A84205D121
:10121000320029002000FFF763FF70BD044B054A30
:101220007C21054801F0D0FC240100D0CD01001044
:10123000EC840010CC8600109C840010F0B5CE46E3
:10124000474680B583B006000D00EFF3108872B6F4
:10125000564B1B68002BFBD0BFF35F8F544B9A6833
:1012600034001034A300D758524B9F4207D0AF42EE
:1012700000D199E00197504BFB1A2F2B09D9424618
:1012800039003000FFF72CFF03B0C0BCB946B046B0
:10129000F0BD3000FFF77CFF814600213000FFF7F2
:1012A00093FFBFF35F8FFEF7DEFF002801D084427B
:1012B00011D10123019C9C430022A368AB4212D0B0
:1012C0000622A256002A0DDB53009B189B00220029
:1012D000394CE418F1E72C21384B394AFF313948B1
:1012E00001F072FC2200AB4257D106256557002D54
:1012F00039DB6B005B199A002F4B9B189A68A26030
:10130000DA79E27106229A56A2719B795BB2002BC0
:1013100010DABD200002A0806B005B199B00264AFA
:10132000D318294A11789971157049463000FFF792
:101330004BFFA4E7201D6B005B199B001E4A9B1806
:101340001A1D9B88D90A1C2907D15B055B1502333E
:1013500059005118FFF7D8FEDDE71C4B1C4AA721A6
:10136000184801F031FC002812D1002A0ED0FF23CA
:101370009371184B9380144A1378A371164B0E493E
:10138000641A644163431B0D1370CEE7094FF2E703
:10139000201D1249FFF7DCFEC7E76021104B084A09
:1013A000FF31084801F010FC024F68E7240100D02B
:1013B00000ED00E0CD0100101002002000860010BA
:1013C0009C8600109C8400104F0F0020E8850010C0
:1013D000BC86001000BDFFFFAAAA00004A02002040
:1013E0002486001070B50400012606432D4BF31A25
:1013F0002F2B28D8FEF737FF00282BD0EFF3108CC7
:1014000072B6294B1B68002BFBD0BFF35F8F274DB3
:1014100022002449521A524155432D0D6DB2244BDE
:101420009B6880001B58B3421BD00022032A32D88D
:1014300053009B189B001B49CB189B795BB2AB42B6
:101440001FD00132F2E7C2211A4B1B4A49001B4848
:1014500001F0BAFB88211A4B174AFF31174801F0F7
:10146000B3FB134B9B68174A1A50174B1A78A2719B
:101470001D70BFF35F8F0C4B00221A608CF3108835
:1014800070BD08005300991889004118FF268E711D
:101490000E4A8A80E9E7CC210D4B074A49000748EC
:1014A00001F092FB10020020240100D0AAAA000043
:1014B00000ED00E02C860010688600109C8400106F
:1014C00054860010CD0100104F0F002000BDFFFF1B
:1014D000608600100022044B02E0044902C301327E
:1014E000072AFAD97047C04600E400E08080808077
:1014F000024B9C4661448900016070474000003403
:1015000070B505000C00080000F014FD200000F08C
:101510001DFE0849200000F05DFDFFF795FD064B1C
:101520009C466044800068602C75A400034BE55025
:1015300070BDC04645180010400000340C0D00205E
:101540000A4B1A68EFF3108172B61368002BFCD0B7
:10155000BFF35F8F054B1B68BFF35F8F00221A60DC
:1015600081F3108840BF002000217047300F002019
:1015700010B5002922D003681B7B99421ED8174B57
:101580009C466144090183689C4661440C68496833
:10159000002A19D003681B7B9A4215D883680F482C
:1015A0008446624412019A181068536802000120B0
:1015B0008B4201D80ED00020C0B210BD084B094AA2
:1015C0003B21094801F000FB054B064A3B21064838
:1015D00001F0FAFAA242EFD8EDE7C046FFFFFF0F95
:1015E00038870010C0890010FC86001010B5002953
:1015F0001ED0037B99421BD84B005B18033B046849
:10160000A4466344002919D0002A1DD0914221D05C
:10161000002A25D0047BA24222D8046850008018FA
:10162000033820188170197800291FD11A7010BD55
:10163000104B114A6821114801F0C6FA104B114AAB
:101640006F310E4801F0C0FA0F4B0E4A70210B4863
:1016500001F0BAFA0D4B0B4A7121084801F0B4FAB7
:10166000044B054A6821054801F0AEFA41701A7032
:10167000DDE7C0466C8700102C8A001088870010B8
:10168000D8870010088A0010E4870010F087001047
:1016900070B506000D001400002914D0002A14D0E3
:1016A000806873689847002806D02200290030001F
:1016B000FFF79CFF280007E02A0021003000FFF719
:1016C00095FF200000E0100070BD0800FCE700005E
:1016D000F0B583B00500009201930AAB1C780BAB08
:1016E0001F78002C26D003685A7B944207D101232F
:1016F000002B19D1002C3BD1200003B0F0BD002CF1
:101700000CD01A7B944209D81A6863001B19033B5A
:10171000D3189B78002BEBD00123E9E73E4B3F4ADF
:1017200068213F4801F050FA3E4B3F4A65213F484F
:1017300001F04AFA03689C7B002CDBD012D01A7BA4
:1017400094420FD862001219033A19688C46624419
:1017500051789973002900D1D97300239370537085
:101760001370C7E72C4B2D4A68212D4801F02CFA45
:10177000002C3AD02B681B7B9C4236D82C4BE318AC
:101780001B01AA6894466344009A1A60019A5A6041
:10179000089A9A60099ADA602E68002C2BD030D013
:1017A000337B9C422DD863001B19033B326894465F
:1017B000634400229A705A701A70717B22003000C4
:1017C000FFF766FF7073844200D095E7287D009A8A
:1017D000019B00F047FC061E01D0002F17D00C9B88
:1017E000002B00D188E71E7086E7124B124A3B217E
:1017F0000E4801F0E9F9114B114AA521084801F002
:10180000E3F9054B054A6821054801F0DDF9286830
:10181000210000F04FFEE2E76C8700102C8A0010D8
:101820008887001008880010388A0010FC86001095
:10183000FFFFFF0F38870010C0890010F8860010E6
:101840001C8A0010F0B5DE4657464E464546E0B5C8
:101850008BB00990002308938200B24BD658370012
:1018600032E0B14BB14A3F21B14801F0ADF9B14B83
:10187000B14A3B21B14801F0A7F9B14BB14A8C21E3
:10188000AE4801F0A1F9B04BAE4A9021AB4801F04F
:101890009BF9A84BAD4A4021A84801F095F92A6868
:1018A0006B68099800F0DEFB00239A4698467B6837
:1018B000BFF35F8F00221A6086F310884346002B27
:1018C00051D1002800D126E100F040FB02000B1EA0
:1018D000C7DB00200021069007917868EFF310869F
:1018E00072B601680029FCD0BFF35F8F3968884663
:1018F0004C7B002C32D0BAD0097B8C42B7D89449AB
:1019000065182D01B9688C46654428686968801A95
:1019100099410029C3DC01D10028C0D100214046F3
:1019200000F0BEFDA042A8D12A686B68069207931A
:10193000AB689846EB689A464346002BA3D0002C30
:10194000A7D03B681B7B9C42A3D8631EFA68D35C7C
:1019500008931B02184338610020A8E700239A4629
:1019600098460020A3E7089B1B0223439946514653
:101970001800C04705000E007A68EFF3108B72B6AE
:10198000136859424B41D9B2002BF9D1BFF35F8F95
:10199000002E26DB002E52DD3B69002B53D04B4539
:1019A00072D100F0D3FA02000B1E73DB01001800A5
:1019B00052197341984202D804D1914202D90122AE
:1019C0005242D317002B6BDB0021049101310391AC
:1019D000029451460191414600913800FFF778FE8C
:1019E00049E03B69002BD5D04B451CD1069A079B9B
:1019F00010001900521BB341994202D804D1904201
:101A000002D901225242D317002B12DB002104918C
:101A100001310391029451460191414600913800F1
:101A2000FFF756FE27E04B4B464A9F21434801F003
:101A3000CBF83D4B3D4A3F213D4801F0C5F8002E13
:101A400001D1002DA8D13A68002C45D0537B9C428F
:101A50002CD1012100293FD1D37B002B42D1D4735B
:101A6000002C52D03B681B7B9C424ED8FA68013C4C
:101A7000135D0133135500233B617A68BFF35F8F19
:101A800013608BF310881FE7324B2E4AA2212B489C
:101A900001F09AF8244B254A3F21254801F094F89B
:101AA000214B224A3F21224801F08EF8002C0DD014
:101AB000137B9C420AD863001B19033B10688446C1
:101AC00063449B78002BC5D00121C3E7224B234AF6
:101AD0006821234801F078F8224B234AF621204858
:101AE00001F072F8002B0AD0117B8B4207D8590005
:101AF000CB18033B11688C4663445C70AFE7164B10
:101B0000164A6821164801F05FF80A4B0F4A402137
:101B10000A4801F059F80BB0F0BCBB46B246A946E2
:101B2000A046F0BD0C0D0020308800108C890010FC
:101B30004C88001038870010C0890010FC86001007
:101B400094880010A4890010AC880010E48900106B
:101B5000FFFFFF0FB88800106C8700102C8A001060
:101B600088870010F4880010F889001010B50A4B1F
:101B70005B68002B04D00A210848FFF7B9FC10BDB0
:101B8000054C2300064A1021206800F0A9FB032120
:101B90002000FFF7B5FCEEE758020020300F0020D0
:101BA0007115001010B5064B5B68002B01D004487E
:101BB00010BD044B044A5C21044801F005F8C046FE
:101BC0005802002018890010CC890010FC860010F3
:101BD000F0B5DE4657464E464546E0B58BB08046EA
:101BE00016001F00149B9A46159B994616AB1B784E
:101BF0009B461F2302AA9446634400221A7032E0D7
:101C0000002809D042461268127B904204D8421E36
:101C10004146C9688A5C48E0434B444A40214448F5
:101C200000F0D2FF0798002B75D05B46002B72D0D6
:101C30004946D04704000D0003000B4300D171E07A
:101C4000002946DB00F082F906000F1E55DB36192D
:101C50006F41B94202D804D1B04202D9012676427E
:101C6000F717002F4FDB43465A68EFF3108472B624
:101C7000136859424B41D9B20791002BF8D1BFF3F9
:101C80005F8F1F3302AA9446634404930023039397
:101C900002934B4601935346009332003B0040466B
:101CA000FFF716FD031EABD1020041464968BFF3A2
:101CB0005F8F00250D6084F31088002B29D01F232F
:101CC00002A98C4663441B78002BABD1120210434F
:101CD000A9E732003B00361BAF41BB4202D804D11A
:101CE000B24202D901267642F717002FBBDA114B18
:101CF000114A3F21114800F067FF0E4B0E4A3F2169
:101D00000E4800F061FF0B4B0B4A3F210B4800F0DF
:101D10005BFF012040420BB0F0BCBB46B246A94677
:101D2000A046F0BD0798F6E738870010E489001058
:101D3000FC860010308800108C8900104C88001040
:101D4000F0B587B006000F00FEF78DFA00281FD10E
:101D500006246442E517A4197D41BD4202D803D18F
:101D6000B44201D900240025002D14DB049405950C
:101D700000F0ECF802000B1E13DBA41A9D41002DAD
:101D800017DC14D03000390000F0ECF807B0F0BDDB
:101D9000234800F0B3FF234B234A3F21234800F0A0
:101DA00013FF204B204A3F21204800F00DFF002C5C
:101DB000E8D0FFF7F7FE0023029301931C4B00933A
:101DC000049A059BFFF704FF002818DADAE70023DE
:101DD00000E00023002BD5D1164B1A68EFF31081D9
:101DE00072B61368002BFCD0BFF35F8F114B1B68DA
:101DF000BFF35F8F00221A6081F3108820BF04991F
:101E0000059A0D4B5B6A9A42E3D80B48806A884278
:101E100003D29A42DBD00123DCE70123DAE7C04694
:101E20003C890010308800108C8900104C8800100C
:101E300041150010300F002000400540F8B50400A7
:101E40000D0000F083F802000B1E10DB20002900BB
:101E5000801859418B4202D804D1824202D9012014
:101E60004042C117002908DBFFF76AFFF8BD064BA7
:101E7000064A3F21064800F0A7FE034B034A3F21D4
:101E8000034800F0A1FEC046308800108C89001085
:101E90004C88001010B5FA2292000023002103F0B4
:101EA000B3FCFFF7CBFF10BD70B5EFF305833F2008
:101EB00018401038EFF3108C72B6194B1B68002BCA
:101EC000FBD0BFF35F8F012319008140154A516396
:101ED000154A12781400C440234214D0114B5C6A96
:101EE0008300124D5B599C4206D38300104C1B5952
:101EF0008A430D490A7007E00A4A031D9B0099585E
:101F00009950002300E00023BFF35F8F044A0021B3
:101F100011608CF31088002B00D0984770BDC0462C
:101F2000280100D000400540500F0020340F002051
:101F30007C0C002010B50100024A0348FFF750F85E
:101F400010BDC046588A00104E0F0020044B5B6A3B
:101F5000034A906A1900536A9942F9D17047C04602
:101F600000400540084B5B6A01E0074B5B6A8B420F
:101F7000FBD301E0044B5B6A8B4203D1024B9B6AAB
:101F80008342F7D37047C0460040054070B5040057
:101F90000D00FFF7DBFF02000B0020002900801876
:101FA00059418B4202D804D1824202D901204042D9
:101FB000C117002902DBFFF7D5FF70BD024B034AB2
:101FC0003F21034800F000FE30880010008B001015
:101FD0004C88001070B504000D00EFF3108672B647
:101FE0001B4B1B68002BFBD0BFF35F8F002D1CD059
:101FF0002000FFF7F1F8174B83420BD019002000A7
:10200000FFF7F2F801212000FFF7DEF80123A340DB
:10201000114A1360A400114BE550BFF35F8F0C4BC6
:1020200000221A6086F3108870BDA2000B4B0021BD
:10203000D1500122A2400A490B7893430B70054905
:102040002000FFF7FBF800212000FFF7BDF8E4E7D0
:10205000280100D0A91E0010386005407C0C00202B
:10206000500F0020F0B5DE4600B584B00400150026
:1020700001921E000293FFF769FF03958E4202D87A
:102080004ED185424CD9EFF3108B72B6274B1B68AB
:10209000002BFBD0BFF35F8F254A17780125A540A1
:1020A000EBB23B431370234B5D63221D92000199F9
:1020B000D150A2002049029850501B6A2B4212D1E5
:1020C0001C4B1B6C2B4208D00020BFF35F8F174BBB
:1020D00000221A608BF3108823E0184B184AC121A4
:1020E000184800F071FDFFF731FF8E4214D802D17D
:1020F000039B834210D80E4B1B78BB420ED00D4B76
:102100001D625D631F2004400123A3400E4A13603B
:10211000074B1F701E38D8E70020D6E70120D4E710
:10212000012004B080BCBB46F0BDC046280100D0F1
:10213000500F002000400540340F00207C8A001022
:10214000E48A0010A08A001080E200E0EFF3108C17
:1021500072B60B4B1B68002BFBD0BFF35F8F0123C4
:102160008340084A136208490A789A430A70BFF309
:102170005F8F034B00221A608CF310887047C046B3
:10218000280100D000400540500F002010B5002964
:102190001ED0037B99421BD84B005B18033B04689D
:1021A000A4466344002919D0002A1DD0914221D0B1
:1021B000002A25D0047BA24222D80468500080184F
:1021C000033820188170197800291FD11A7010BDAA
:1021D000104B114A6821114800F0F6FC104B114ACF
:1021E0006F310E4800F0F0FC0F4B0E4A70210B4887
:1021F00000F0EAFC0D4B0B4A7121084800F0E4FCAA
:10220000044B054A6821054800F0DEFC41701A7055
:10221000DDE7C0466C870010088C0010888700102E
:10222000D8870010F48B0010E4870010F0870010AE
:1022300070B506000D001400002914D0002A14D037
:10224000806873689847002806D022002900300073
:10225000FFF79CFF280007E02A0021003000FFF76D
:1022600095FF200000E0100070BD0800FCE70000B2
:1022700010B50023437301338373037BC3730123BE
:10228000027B9A4214D9002B0CD0027B934209D8CE
:102290005A00D218033A01688C4662440133DBB21B
:1022A0005370EDE70B4B0C4A68210C4800F08CFC96
:1022B000002A09D0924207D8016853009A18033ABD
:1022C0008A180023537010BD024B034A682103484B
:1022D00000F07AFC6C870010088C001088870010D2
:1022E00010B5017342608360FFF7C2FF10BD0000AC
:1022F00070B50400081E00D170BD002934D0237BC6
:10230000994231D84B005B18033B226894466344E2
:102310005A78002AF0D02DD0237B9A422AD8530035
:102320009B18033B21688C4663445D7800215970FB
:10233000002825D0237B984222D843001B18033B5A
:1023400021688C4663440021597001002000FFF78A
:102350006FFF060029002000FFF7CAFF02003100CE
:102360002000FFF765FFC7E7084B094A68210948C5
:1023700000F02AFC054B064A6821064800F024FCC0
:10238000024B034A6821034800F01EFC6C870010D2
:10239000088C00108887001070B505000C0016002E
:1023A000002928D02DD0037B99422AD84B005B18F6
:1023B000033B0268944663445A78002A27D19A78EE
:1023C000002A2AD11978FFF793FF0300002E03D0CB
:1023D000EA7B002A27D1EC73002B37D1002C49D09F
:1023E0002B7B9C4246D82B6861000C19033C1C19BE
:1023F0000023637070BD224B224A3821224800F02E
:10240000E3FB224B224A6821224800F0DDFB224BED
:102410001C4A3A211C4800F0D7FB204B194A3B21AB
:10242000194800F0D1FB002A0AD0297B8A4207D83C
:1024300051008A18033A29688C4662445470CAE7EE
:10244000124B134A6821134800F0BEFB002B0BD03F
:102450002A7B934208D843001B18033B2A68944602
:10246000634400229A70B9E7084B094A6821094879
:1024700000F0AAFB054B064A6821064800F0A4FBC1
:10248000188B0010E08B0010208B00106C87001060
:10249000088C0010888700105C8B0010848B001063
:1024A00070B504000A00457B2900FFF775FF6073D3
:1024B000280070BD70B50400002967D0437B8B42B3
:1024C0000ED0002911D0037B99420ED84B005B1827
:1024D000033B0268D0188378002B0CD1002056E013
:1024E0000121FFF7DDFF012051E0294B294A682136
:1024F000294800F069FB002B20D0227B93421DD895
:102500005A00D318033B2268D2182568EB5C8B4233
:102510001AD0002B1BD0227B934218D85A00D31814
:10252000033B2268D21853788B4216D0002BF0D18F
:102530001A4B1B4A67211B4800F046FB144B154AF7
:102540006821154800F040FB4378137007E0104BFA
:10255000104A6821104800F037FB4378537000237D
:102560008370437001222000FFF716FF0200617B99
:10257000814205D02000FFF75BFE6073012006E07A
:10258000094B074A6D21074800F01EFB002070BD73
:102590006C870010088C001088870010608600107F
:1025A000C88B0010208B0010A88B001010B5040001
:1025B000FEF74AFD01002000FEF79AFFFF2323717A
:1025C000BFF35F8F10BD10B50400FEF73DFD0100A5
:1025D0002000FEF78DFFFF23237100236371BFF3FB
:1025E0005F8F10BDF0B5D646474680B583B08246B2
:1025F0008846062000F09CFC0700022400E02C0026
:10260000FE2C1CD801970026A51C28024246002358
:10261000002103F0F9F8002903D1B142EFD1B8420B
:10262000EDD980256D00012D0CD96E1E210071435E
:10263000380001F053FE404504D83500F3E780250B
:102640006D00F0E753461C616B1E1B025246126878
:102650005340FF2212021340802040015246104393
:10266000036029006143380001F038FE03B0C0BCAC
:10267000BA46B046F0BD000010B50400144B9842B5
:1026800022D080229202134B1A60134B1A60134B14
:102690009B6810009843FAD12000FFF7A3FF22683F
:1026A00007235340CF221A4080235B0123431A6043
:1026B0002200243280239B011A4303211160043439
:1026C0001C430223236010BD80225202DBE7C04678
:1026D00000C0034000E0004000F0004000C00040A7
:1026E000F0B5DE4657464E464546E0B585B0060095
:1026F00010001C0002930EAB1A7803920F9D109FDE
:1027000033680022DA663368596033680132DA666A
:10271000A246002398469B4600242BE03279002AEB
:1027200031D001222FE00399002901D000212EE0B1
:1027300001212CE03800A84703000443E4B2002B39
:1027400006D13268526BD20602D4002DF2D1F6E7E0
:10275000002B09D13268802151588B4600291FD1A6
:10276000002C2FD1C1451ED0002C33D1012294461C
:10277000E0440198D0452DDA029A013A914642464A
:10278000002ACBD000229202C145CCD000214902C0
:102790000A43411C01910078316802430A61D4E781
:1027A000526D01240EE0039A002ADDD10AE03800C0
:1027B000A84703000443E4B2002B06D13268526BF1
:1027C000920502D4002DF2D1F6E7002BCCD132686D
:1027D000126EC9E7002C09D0002B15D15B46002BE7
:1027E00016D0DB0718D45B461B0709D5039B337152
:1027F000404605B0F0BCBB46B246A946A046F0BD77
:1028000002235B429846F1E701235B429846EDE7DD
:1028100002235B429846E9E702235B429846E5E7DC
:10282000F0B5DE4657464E464546E0B583B0050056
:1028300091469A460CAB1B7801930D9E0E9F036840
:102840000022DA660368596003680132DA66D3460B
:102850000023984600242AE02979002933D0012159
:1028600031E00198002801D0002030E001202EE066
:102870003800B04703000443E4B2002C0DD12A68AD
:10288000926F002A09D12A6880215158546D621E26
:102890009441E4B2002EEBD1EFE7002C1ED12A6860
:1028A000126949460A7001229446E044E144D84541
:1028B00014DA5246541E2A68516F1029FBD0414643
:1028C0000029C9D0002189024445CAD00020400215
:1028D00008438021490001431161D4E7002C04D052
:1028E000002B0CD001235B429846019B2B71404684
:1028F00003B0F0BCBB46B246A946A046F0BD0223D9
:102900005B429846F1E70000F0B5D6464F46464692
:10291000C0B505000C00052000F00AFB06006008A9
:102920008019210001F0DAFC070043009946814438
:102930000521484601F0D2FC80463B1A9A46284BB6
:102940009C4224D870008019264901F0C7FC441C21
:102950004346023BA34221D32B680022DA66296852
:102960000A680423534006221A4080235B010B436C
:102970001A602B685246DA612B6842461A624B464F
:102980004F2B11D95021484601F0A8FC0DE07000F2
:102990008019154901F0A2FC441CD9E7134B144AD5
:1029A0005F21144800F010F90120A0232A68D050BC
:1029B0002A6811007C31D06F44402404240C802309
:1029C0005B010B431C602B680122DA663900300082
:1029D00001F084FCE0BCBA46B146A846F0BDC04652
:1029E0003F420F008096980040787D01B08C001027
:1029F000108D0010D08C001010B5114B98421CD0D7
:102A00001022104B1A60104B1A60104B9B68140078
:102A10009C43231EF9D104710268D46602686624BF
:102A2000FF3414600268D36302689363883303221F
:102A30000468E250FFF768FF10BD0822E1E7C046D6
:102A40008002002000E0004000F0004000C0004094
:102A500030B585B008AC2578002402940194009527
:102A6000FFF73EFE05B030BD30B585B008AC257827
:102A70000024029401940095FFF7D2FE05B030BD0A
:102A800070B504000D00062000F052FAC0002900C5
:102A900001F024FCC60908D00E4B9E4217D87F23B4
:102AA000184001303500460800E001256562A66245
:102AB0002C3480208001044300232360062000F092
:102AC00037FA8000A901891901F008FC70BD0026C1
:102AD000014DEBE7FEFF0000FFFF0000002909D0D9
:102AE0000A22064B9C466044434258414000044B36
:102AF000C252704780225200F3E7C0460080FCBFFC
:102B0000440F002070B505000C00062000F010FAFC
:102B1000002829D0164B9D4227D08022D203154B86
:102B20001A60154B1A60154B9B6811009943FAD136
:102B300000212800FFF7D2FF21002800FFF7A0FFA7
:102B40002C002C34E96A60224A406E211140802218
:102B50005201224311600A4B2B6380239B012343C4
:102B600010221A600323AB6470BD80221204D6E7E2
:102B70000080034000E0004000F0004000C0004042
:102B80000103000000BEFDE703000A4A1268002AA4
:102B900008D0084A1068C318074A9A4206D3054A63
:102BA00013607047034A05491160F2E70120404273
:102BB000F7E7C046080D002000000420540F002055
:102BC00010B5FFF7DFFF000010B582B00C00190050
:102BD000002A0CD0084B002A0BD00192009323004E
:102BE0000200064803F01CF90120FFF7CBFF044B5D
:102BF000F1E7034AF1E7C046248D0010348D001040
:102C00006884001070B52B4B2B4A1A602B4B2C4A52
:102C10001A602C4B9A682A4B9343FAD12A4C01E054
:102C200008CC9847294B9C42FAD300F001F9234B7A
:102C3000274A1A60234B9B68DB43DB01FAD1254B03
:102C400040229A675A671A67DA66234C09E0234BD9
:102C5000234A83212348FFF7B7FF2000FFF7A6FC94
:102C60000834214B9C4209D22368002BF5D0012B5C
:102C7000EDD12000FFF7A7FC0834F2E71B4CA16858
:102C80001B4DC022280002F023FFA560FDF7EBFAE0
:102C9000002800D000BEFEF7C7F9FEF71BFCFEF7C8
:102CA00065FF144C01E008CC9847134B9C42FAD3C3
:102CB00070BDC04600E00040BFCDFBFE00F000400C
:102CC000FE7F3C0000C00040080B0020180B0020D5
:102CD000FFFFFF0100F00140000B0020648D001099
:102CE000DC8D0010848D0010080B002000ED00E04A
:102CF00000000020180B00201C0B00200FB400B5B2
:102D000083B0084803F05AF8049B002B07D005A9AC
:102D10000191180003F062F8034803F04FF8012016
:102D2000FFF730FFC88D0010D88D0010F8B5DE46D3
:102D300057464E464546E0B505000F0092460A9AB2
:102D400093424ED31A0E91461E020A9A0023300077
:102D5000494601F005FB80466C006419A4002F4B26
:102D60009C4664446368834200D260602B1FDBB2E0
:102D70009B46012B3BD9C0239B0123438022120198
:102D80001A60AB00264A9958002905D0506901F015
:102D9000A5FA01300138FDD153465A0123685A4043
:102DA000E0231A4080235B0123431A605A46012A1C
:102DB00028D980239B012343802212011A604346B5
:102DC0006360424600233000494601F0C9FAAD0075
:102DD000134B58510120F0BCBB46B246A946A04651
:102DE000F8BD104B104A2D211048FFF7EDFE012FC2
:102DF000C1D1C0239B01234303221A60A368DB07D0
:102E0000FCD5C9E72168794003220A401A60A2680C
:102E10000123BB401342FAD0CBE7C04600800040FC
:102E20008C0C0020EC8D0010488E0010008E0010DD
:102E300030B583B00C2000F021F9FEF7EBF8002844
:102E40000DD0002304E099002D4A2E48885001330C
:102E5000092BF8D92A4B2C4A5A6203B030BD2B4BB0
:102E600000229A6700F012F9294B01221A60274BC1
:102E70005B6C012BFBD1274B03221A60234B9B6B0E
:102E8000012BFBD1013300930433234A0121234852
:102E900000F054F805230093214A0121214800F055
:102EA0004DF8214B0093002202210420FFF73EFF42
:102EB0001E4D00952B00002201210520FFF736FF53
:102EC000104C00942300002200210720FFF72EFF62
:102ED00000942300002200210820FFF727FF0A4B5F
:102EE00000932300002200210920FFF71FFF009517
:102EF0002B00002200210620FFF718FFADE7C04697
:102F00008C0C0020006CDC021BB70000008000402D
:102F10003CB0004030B00040002F685900800240B3
:102F2000008C864700C00240001BB7004059730761
:102F30008000014BC05870478C0C0020F0B5C6468D
:102F400000B504000F0090461D000C2001F0C6F9EA
:102F500006003D4A42443D4B9A4243D843011B1A66
:102F60009901C91AC90009188901404601F0B6F94A
:102F70000200103A98235B009A4239D86B1E062B48
:102F80003CD8069B013B062B38D8069B9D423BD381
:102F900043461A09B2423DD32D04069B1E03354316
:102FA0002368002B3CDB2A4B9C424AD080225201F2
:102FB000284B1A60284B1A60284B9B6811009943D4
:102FC000FAD12760A060231DC02292011A43212359
:102FD00013602368002BFCDAE5600823136080BCD3
:102FE000B846F0BD1E4B1F4A11211F48FFF7ECFDEC
:102FF0001E4B1C4A19211C48FFF7E6FD1C4B194AC1
:103000001C211948FFF7E0FD1A4B164A22211648E9
:10301000FFF7DAFD184B134A25211348FFF7D4FDBB
:1030200022683F231340BB42BDD1A3681B051B0D83
:103030008342B8D1E368EE22D2021340AB42B2D150
:10304000CDE780229201B3E780E84BD380F8A93224
:1030500000C0024000E0004000F0004000C000401E
:10306000588E0010948F0010B88E0010F88E00104B
:10307000148F0010608F0010788F001080239B0049
:103080000343014AD362704700800540064BAA22E1
:1030900012011A602F22DA60044B054A1A60024BB3
:1030A0005B68002BFBDA7047004002400060024082
:1030B00000B0FA009A4200D288547047704710B5A9
:1030C000002802D00B684968984710BD0100002015
:1030D00007E083001B185B00501C08601078C018C4
:1030E00030380A681378303BDBB2092BF1D97047CE
:1030F000F0B5DE4657464E464546E0B583B09346AA
:103100001F000C9B9A460D9C0E9B99460F9B9B079C
:1031100003D0B8460F00060022E00192A34688467D
:103120004E46B9460700B44207D2551C4B464146AD
:103130002020B84701342A00F5E73D004F465C46A1
:10314000019B9B46B1464646B84637002E0007E035
:10315000013C551C5346185D43463900B0472A00D0
:10316000002CF5D135003E0047460F9B9B0707D446
:10317000100003B0F0BCBB46B246A946A046F0BD65
:10318000B0464E46B9462F005D46531BB342EFD2C0
:10319000541C4B4641462020B8472200F5E7F0B5C5
:1031A000CE46474680B585B0944698460C9D0D9C0A
:1031B0000EAB1B789946109A119B129EB7071CD430
:1031C000002B0CD0F7070AD54F46002F02D10C3741
:1031D000374204D0013B02E030272F55013494429E
:1031E00001D21F2CF8D9F70707D59C4205D21F2C16
:1031F00003D830272F550134F5E7F70615D57705A5
:1032000005D4002C03D0944224D09C4222D00F9AA3
:10321000102A2BD00F9A102A30D00F9A022A35D0BC
:103220001F2C02D830222A5501341F2C05D84A46BB
:10323000002A31D02D222A5501340396029301949D
:10324000009543466246FFF753FF05B0C0BCB94640
:10325000B046F0BD621E012C06D00F9F102F01D08A
:103260001400D4E7023CD2E71400D0E7B206D1D470
:103270001F2CCFD878222A550134D1E7B206CCD5FD
:103280001F2CCAD858222A550134C9E71F2CC7D889
:1032900060322A550134C3E7720703D52B222A5521
:1032A0000134CAE73207C8D520222A550134C4E7C1
:1032B000F0B5DE4657464E464546E0B593B08146EA
:1032C0008A46089209931CAB10CB1B789B461E9D27
:1032D000219B9846002C03D1102342469A439046E6
:1032E0008023DB0046461E4042461A4212D0002C84
:1032F00022D000260EE03033D9B2771C0AAB9955A4
:103300002900200000F0EAFFAC4216D31F2F14D88A
:103310003E0004002900200000F0E0FFCBB2092BA2
:10332000E9D94246920605D54121C918C9B20A39E0
:10333000C9B2E2E76121F8E7270043460693209BE4
:1033400005931F9B049303955B46029301970AAB79
:103350000093099B089A51464846FFF720FF13B097
:10336000F0BCBB46B246A946A046F0BDF0B5DE466D
:1033700057464E464546E0B595B0089009910A92E9
:103380000B931E9E1F9C20AB1B789B46229B99464D
:10339000239D269B9A463300234303D11033524684
:1033A0009A4392468023DB0057461F4052461A42FA
:1033B00019D0330023432DD0002714E03033DAB284
:1033C0007B1C98460CABDA554A462B003000210096
:1033D00000F0C6FFA5421FD819D043461F2B1BD8AB
:1033E000474606000C004A462B003000210000F042
:1033F000B7FFD3B2092BE1D95246920605D5412237
:10340000D218D2B20A3AD2B2DAE76122F8E7B1456D
:10341000E3D901E00023984653460693259B059384
:10342000249B04934B4603935B46029343460193CC
:103430000CAB00930B9B0A9A09990898FFF7AFFE13
:1034400015B0F0BCBB46B246A946A046F0BD000090
:10345000F0B5DE4657464E464546E0B591B0834648
:103460008A460C9298461A9C08941B9D0995220046
:103470002B002000290001F00EFA002800D0E5E022
:1034800001225242D74B2000290001F0FFF9002809
:1034900000D0DBE001225242D34B2000290001F092
:1034A000DFF9002800D0D1E000220023089E300080
:1034B000099D290001F0D4F9002800D0DDE008982A
:1034C0000999069007918023DB001E9A1A400D92FD
:1034D0001E9A1A4201D106231C93069807990400EC
:1034E0000D000A000600024300D1D1E0080D40059E
:1034F000400DBE4CA44660440A03120BBC4B134360
:103500001F0001F0DBF9BB4ABB4B01F066F9BB4A77
:10351000BB4B01F03BF904000D000022B94B300019
:10352000390001F02AF9B84AB84B01F056F9020007
:103530000B002000290001F029F901F0D7F981469C
:1035400001F0BCF904000D00B14AB24B01F045F99D
:103550000022B14B01F01AF901F0C8F90600AF4A98
:10356000AF4B2000290001F038F904000D003000B5
:1035700001F0A4F9AB4AAC4B01F02FF902000B00AB
:103580002000290001F0F9F804000D0002000B00F2
:1035900001F023F90A900B91A44BF31800261F05A4
:1035A00022002B002000290001F0F0F80E900F916E
:1035B00022002B0000208021C90501F0DEF8040064
:1035C0000D0000229A4B0A980B9901F0E8F80022AE
:1035D000984B01F0DBF802000B000A980B9901F000
:1035E000DEF80022944B01F0D1F802000B000A989B
:1035F0000B9901F0D4F802000B002000290001F023
:10360000C5F802000B000E980F9901F0C8F80022CF
:10361000774B01F0BBF832003B0001F0DEF806000A
:103620000F0004000D00069A079B01F02FF90028F7
:1036300030D001235B429C46E14400227D4B3000A8
:10364000390001F0ACF804000D0023E01E9B049348
:103650001D9B03931C9B0293089A099B0092019364
:1036600043460C9A5146584600F0FCF811B0F0BCA5
:10367000BB46B246A946A046F0BD002300240693EF
:103680000794069680231B069C46654407951AE717
:10369000002399464B466333C62B1ED804261E9B37
:1036A0001B0526D52B0023430FD0644A644B069894
:1036B000079901F0E3F8002879D00022614B0698C1
:1036C000079901F0CDF8002871D01C9B4B4506DD11
:1036D0004A46981A431E1C9303E00526DFE70023A1
:1036E0001C938023DB001E9A1A431E92002600239F
:1036F00099461D9B9E4264D29F1B02231E9A1A402C
:103700000A921E9A134202D0002E00D000274B4688
:10371000002B07D022002B000698079901F03FF8F4
:1037200006900791002200230898099901F098F863
:10373000002848D1444B1E9A1340049303971C9BC6
:103740000293069B079C0093019443460C9A5146B2
:10375000584600F087F8002E00D187E71E9B9B0695
:103760003DD54525441C4346020051462800D84714
:103770004B46DA179B18534005220592013E0496EA
:10378000002203920A3202924A46D00F019000931F
:103790004346220051465846FFF78AFD0A9B002BFC
:1037A00000D163E702005F460C9E1D9D54E01C9B08
:1037B000002B9ED00D9B002B9BD01C9B013B1C9390
:1037C00097E7002799E7069C079D220029008020A3
:1037D0000006844661440B0006920793AAE765251C
:1037E000C0E7C046FFFFEF7FFFFFEFFF01FCFFFFD9
:1037F0000000F03FFB799F501344D33FB3C8608B68
:10380000288AC63F0000F83F61436F63A787D23F15
:1038100071A379094F930A400000E03F1655B5BBEC
:10382000B16B0240EF39FAFE422EE63FFF03000083
:1038300000002C4000002440000018402D431CEBE9
:10384000E2361A3F80842E41FFF7FFFF541C4346A7
:1038500051462020B8472200931BAB42F6D31000FC
:1038600004E7C046F0B5DE4657464E464546E0B54D
:1038700095B00690079193469946209F1E9A1F9BEC
:103880001000190001F007F8002831D1012252423E
:10389000BF4B1E981F9900F0E3FF002837D101228B
:1038A0005242BC4B1E981F9900F0F0FF00283DD1FA
:1038B0000022B94B1E981F9900F0E8FF002850D154
:1038C0000022B64B1E981F9900F0CAFF002848D16D
:1038D000002200231E981F9900F0C2FF002850D13B
:1038E00000239846229B5B0500D4B6E0002458E0F4
:1038F000229B0393219B029303230193A84B0093E4
:103900004B465A4607990698FFF7F2FB0EE1229BB9
:103910000393219B029304230193A24B00934B46F4
:103920005A4607990698FFF7E3FBFFE00423229A23
:103930001A4022990B4210D09B4B002A0FD0042230
:103940002299039121990291019200934B465A4684
:1039500007990698FFF7CCFBE8E0944BEDE70322CC
:10396000EEE7229B0493219B039302971E9B1F9CCF
:10397000009301944B465A4607990698FFF768FD55
:10398000D4E01E9A1F9B0020002100F0F6FE1E903E
:103990001F9101239846A5E70CAB30221A55013F31
:1039A00001341F2C01D8092FF6D81E981F9900F05A
:1039B0009DFF050000F082FF02000B001E981F997A
:1039C00000F0DBFEFA007A4B9B181A685B680A92DB
:1039D0000B9300F002FF0890099100F0ABFF060086
:1039E00000F068FF02000B000898099900F0C5FE7E
:1039F0000890099100226F4B00F048FF00282ED05C
:103A00000136300000F056FF02000B000A980B99B7
:103A100000F02CFF002801D001350026002F2CD10A
:103A2000280000F04BFF02000B001E981F9900F0C9
:103A3000A4FE06000F0000225E4B00F011FF0028DC
:103A400046D100225B4B3000390000F01FFF0028F8
:103A50003ED1EB073CD501353AE0062746E7002288
:103A6000544B0898099900F0FBFE0028D6D1002E8F
:103A700001D0F307D2D50136D0E7AA461F2C11D8C2
:103A8000013F0A21300000F029FC651C30310CABED
:103A900019550A21300000F021FC092E0ED906002C
:103AA0002C00EBE755461F2C0CD87B1E002F09D0AD
:103AB0000CAA302111551F000134F4E72B005546A4
:103AC0001C00F0E71F2C03D80CAB2E221A55013432
:103AD0001F2C10D80A21280000F0D8FB661C3031BA
:103AE0000CAB19550A21280000F0D0FB051E01D0AF
:103AF0003400EDE734000323229A1340012B1CD03D
:103B00001F2C06D84346002B32D00CAB2D221A5561
:103B10000134229B0393219B029301940CAB0093ED
:103B20004B465A4607990698FFF7E2FA15B0F0BCE3
:103B3000BB46B246A946A046F0BD219B002B13D040
:103B40004346002B02D10C3313420FD0219B013B83
:103B50002193190003E00CAB30221A5501348C423A
:103B6000CED21F2CF7D9CBE72199F8E72199F6E7B8
:103B7000229B5B0704D50CAB2B221A550134C8E7F6
:103B8000229B1B07C5D50CAB20221A550134C0E778
:103B9000FFFFEFFFFFFFEF7F65CDCD4165CDCDC1CD
:103BA000AC8F0010B08F0010A48F0010A08F0010F9
:103BB000989100100000E03FF0B5DE4657464E46B3
:103BC0004546E0B593B082468B4690461193002956
:103BD00000D1EBE200275546119B1878002800D150
:103BE000E7E2252809D07C1C43463A005946A847FD
:103BF000119B013311932700EEE701331193002449
:103C0000119A11780B00203BD8B2102803D88300FA
:103C1000D048C3589F460B00303BDBB2092B2CD950
:103C20002A292FD000230A93119B1A782E2A39D0E3
:103C300000239A46119A1378683BD9B2122976D894
:103C40008B00C549CB589F4601231C43013211927A
:103C5000D6E702231C4301321192D1E704231C430F
:103C600001321192CCE708231C4301321192C7E7BD
:103C700010231C4301321192C2E711A8FFF726FA64
:103C80000A90D1E71C9B1A1D1C921868002804DBBF
:103C90000A90119B01331193C6E702231C43434250
:103CA0000A93F6E78022D20014435A1C11925A78E4
:103CB0001300303BDBB2092B04D92A2A07D000239A
:103CC0009A46B7E711A8FFF701FA8246B2E71C9BB4
:103CD0001A1D1C921868002804DB8246119B0133D0
:103CE0001193A7E70020F8E780235B002343511CD2
:103CF000119152786C2A01D01C0018E0C0239B005F
:103D00001C430131119112E080232343511C119176
:103D10005278682A01D01C0009E0C0231C430131FD
:103D2000119104E080235B001C4301321192119B2E
:103D300018780300253BDAB2532A00D92CE293000D
:103D4000864AD3589F4680239B001C430132119220
:103D5000EDE780235B001C4301321192E7E77828EE
:103D600009D0582838D06F2838D0622838D010238E
:103D70009C430A2600E01026582833D0692803D037
:103D8000642801D00C229443630501D50122944399
:103D900069282AD0642828D0A30500D59FE0E30530
:103DA00000D5B8E0630600D4CAE01C9A111D1C912E
:103DB0001168FF220A4005940A9B0493534603931B
:103DC000029600230193009243463A005946280088
:103DD000FFF76EFA070027E01026CDE70826CBE7AD
:103DE0000226C9E720221443C8E7A30520D4E3052F
:103DF00050D4630666D51C9A111D1C911168FF22D0
:103E00000A40D317D118594005940A9B049353468E
:103E100003930296D20F0192009143463A0059460D
:103E20002800FFF745FA0700119B01331193D3E6F1
:103E30001C9BDA1D07218A43110008311C9111686F
:103E400053689C46DB170C930D930C9A0D9B100046
:103E500048400E90624653400F930E980F990C9A6B
:103E60000D9B801A99410E900F9108940A9B07931D
:103E7000534606930496002305936346DA0F029295
:103E80000090019143463A0059462800FFF76EFA28
:103E90000700C9E71C9A111D1C911268D317D1188D
:103EA000594005940A9B0493534603930296D20FFC
:103EB0000192009143463A0059462800FFF7F8F96D
:103EC0000700B1E7230605D51C9A111D1C9100239C
:103ED000D25E96E71C9A111D1C91126891E71C9BFB
:103EE000DA1D07218A43110008311C9108940A9BAE
:103EF0000793534606930496002305930293136891
:103F000054680093019443463A0059462800FFF74D
:103F10002DFA070088E71C9A111D1C9105940A9B35
:103F2000049353460393029600230193136800936E
:103F300043463A0059462800FFF7BAF9070073E7ED
:103F400023060DD51C9A111D1C9112681204120C27
:103F500031E7C046B88F0010FC8F00104890001069
:103F60001C9A111D1C91126825E746281AD01C9B2B
:103F70000733072293431A0008321C9204940A9ACA
:103F80000392524602925C681B6800930194434678
:103F90003A0059462800FFF765FC0700119B0133E2
:103FA000119319E620231C43E1E7672801D0472835
:103FB00002D180231B011C43452801D0472801D191
:103FC00020231C431C9B0733072293431A0008320B
:103FD0001C9204940A9A0392524602925C681B68EF
:103FE0000093019443463A0059462800FFF730FAFF
:103FF0000700119B01331193EEE502231A002240C2
:10400000924623421FD001241C9B1A1D1C927A1C2D
:104010009146187843463A005946A8475346002B24
:1040200016D1119B013311934F46D5E5561C4346DB
:1040300059462020B847230032005C1C9D42F5D829
:104040003D001700E0E701233A002F000A9DF4E746
:104050004A46A9460A9D06E0571C43465946202079
:10406000C84734003A00661CA542F5D84D46914633
:10407000D7E71C9B1A1D1C921B6899465346002BC0
:1040800000D1013B4E4601E0013613003278002A90
:1040900002D05A1E002BF7D14B46F21A1092802301
:1040A000DB0026001E401C4203D0524501D9534676
:1040B000109302231A0022400B92234205D03A00AB
:1040C00037004C46A946554620E03A00109B5F4613
:1040D000B3462E0006E0551C434639002020B04769
:1040E00023002A005C1C0A999942F4D835005E46E8
:1040F000BB46109437004C46A946554606E01D00C5
:104100000134561C43465946C847320020780028DF
:1041100004D0002FF4D06B1E002DF0D117004D46B7
:104120000B9B002B03D1119B0133119354E50A9F84
:10413000109B06E0561C434659462020A847230002
:1041400032005C1C9F42F5D81700ECE721231C438A
:104150001C9B1A1D1C921B68009305940823049352
:1041600053460393102302930023019343463A00DE
:1041700059462800FFF79CF80700119B0133119363
:104180002AE57C1C43463A0059462520A847119B46
:104190000133119327001FE57C1C43463A00594622
:1041A000A847119B01331193270015E50A4B9A4646
:1041B00010E5AA46474502D343465A1E00E03A009E
:1041C000434659460020D047380013B0F0BCBB46E8
:1041D000B246A946A046F0BDBD3000100EB410B5E1
:1041E00085B0010007AC08CC039401220094524230
:1041F0000348FFF7E1FC05B010BC08BC03B018474A
:10420000B530001000B585B00290039101210093F4
:1042100013004A4202A90248FFF7CEFC05B000BDD8
:10422000BF30001001480421014B184790020020C4
:104230005542001010B5010018231B881422108865
:10424000984710BD10B5010018231B88162210884E
:10425000984710BDF0B5C64600B507000E00002512
:104260000123984600E00135B5420AD2AC003C1962
:104270002068FFF7DFFF20600028F4D10023984674
:10428000F1E7404680BCB846F0BD0000124A936F8B
:104290009B0815D29066D166002905D0FFE7FFE79D
:1042A000FFE7516F106F704704B580210906C217F0
:1042B0005140002800D0C84302F0AAFE002104BDEE
:1042C000F0B5146E556E576F166FFFF7E3FF146667
:1042D000556657671667F0BD000000D0114A936F0E
:1042E0009B0813D210665166002905D0FFE7FFE74F
:1042F000FFE7516F106F704704B5002801D0002010
:10430000C04302F085FE002104BDC046F0B5146E26
:10431000556E576F166FFFF7E5FF146655665767C2
:104320001667F0BD000000D094464E4A926F920886
:10433000624601D230E0C046F0B54A4EB56F6D0816
:10434000FCD3346E756E776F366F00F025F89446A7
:10435000444A14665566576716676246F0BDC04604
:104360009446404A926F9208624601D258E0C04695
:10437000F0B53C4EB56F6D08FCD3346E756E776F3B
:10438000366F00F04DF89446364A14665566576706
:1043900016676246F0BDC046002B24DB11D0002911
:1043A0003EDA00B5C943404200D1013100F038F88F
:1043B000C943404200D10131DB43524200D10133B5
:1043C00000BD002AEBD1002801D1002905D0002032
:1043D000C90FC90701D1C043410800B502F010FE62
:1043E0000022002300BD00B500290ADBDB43524256
:1043F00000D1013300F014F8C943404200D101312B
:1044000000BDC943404200D10131DB43524200D1DB
:10441000013300F005F8DB43524200D1013300BD07
:10442000002923D1002B18D1002A0CD0BC460D4FF7
:1044300038667A6600210023FFE7FFE7FFE77A6F1F
:10444000386F67467047002801D00748010000B563
:1044500002F0D6FD0022002300BD02000B00002068
:1044600000217047000000D0FFFFFFFF002B00D0AD
:10447000BFE0130C28D1002AE7D080B4114F396671
:104480007A66FFE7FFE730B4040C7B6F396F1B04DB
:1044900023433B667A66FFE7FFE7FFE7C04684B247
:1044A0007B6F3D6F1B0423433B667A66FFE7FFE7A4
:1044B000C04600232C042D0C7A6F386F0019694117
:1044C000B0BC7047000000D0F0B594460025140E33
:1044D00001D112020835140F01D112010435940FD5
:1044E00001D192000235D40F01D152000135D40B15
:1044F0000134254F7C66254C3C660E0C93B2FFE7D9
:10450000FFE7FFE73C6F6643360C7703BE46734315
:10451000DF0B5B04C01AB941130C7343DB18C91AD3
:10452000CE086643360CB64493B273431F0F1B018B
:10453000C01AB941130C73431F0B1B05C01AB941B4
:10454000860D8F023E436643360C092D24DB520A4A
:104550007243801A7703460A6643360C16235B1BA8
:10456000DE40DF40BF1964466643821B7046043557
:1045700006330100D940A840C01900D30131A2423E
:1045800006D20023F0BD0000000000D0FFFFFFFFB7
:10459000121B0130F3D3F1E709277F1BFE4064466D
:1045A000A2B27243801A00D20139220C7243130C5A
:1045B0001204821A99410B0070460435133701002A
:1045C000F940A840801900D30131002B02D1A2424A
:1045D0000AD2F0BD013000D30131121BFAD2013BE7
:1045E000F8D1A24200D2F0BD013000D30131121B3C
:1045F000F7E7F0B51C0C00D080E00CB400251C0AD5
:1046000004D11B02160E3343120208351C0B04D1D1
:104610001B01160F3343120104359C0B04D19B0080
:10462000960F334392000235DC0B02D192185B41A6
:1046300001351C00971864410134464F7C66464C96
:104640003C660E0CFFE7FFE7FFE7C0463C6F6643A2
:10465000360C7703BE4697B27743C01B00D20139B0
:10466000C01B00D201399FB27743C91BC91B170C6D
:1046700077437E04FF0B801BB941CE086643360C9E
:104680000C2D33DBB644120B1F053A431B0B97B2BC
:104690007743C01B00D201399FB27743C91B170C67
:1046A00077433E043F0C801BB941860D8F023E4389
:1046B000664329277F1BFE400C3D7746AF40BF195C
:1046C00030BCA2B2ABB272437343801A9941220C40
:1046D0007243130C1204801A994102000B00013737
:1046E000001BA941F9D2781E0021F0BD0C277F1BC9
:1046F000FE4077467F0BAF40FF19E0E700245D1CCA
:1047000007D0144F7D663966FFE7FFE7FFE7FFE755
:104710003C6F95B29EB265436643401BB141150C98
:104720001E0C6543664336042F0C3E432D04401B8C
:10473000B141994204D202000B0020000021F0BDDB
:1047400001D19042F7D3801A994101349942F2D3B2
:10475000F6E70000000000D0FFFFFFFF44464D4693
:1047600056465F46F0B47047F0BCA046A946B24634
:10477000BB46704748404140484018B41B4B5B68FB
:10478000FC46019308BD04DFBF4D001018B4174B61
:104790001B68FC46019308BD00DFC94D001094461C
:1047A000134A926F920809D2624618B40F4BDB6825
:1047B000FC46019308BD0CDF815000100C4AF0B597
:1047C000146E556E576F166F6246FFF7EEFF084A7C
:1047D0001466556657671667F0BD18B4034B9B689F
:1047E000FC46019308BD08DF254F00102C0D00206A
:1047F000000000D0FFB550404240504059404B406F
:10480000594000E0FFB5154F4C00640D03D0BC4289
:1048100004D10C0314D80020090D09055C00640DB7
:1048200003D0BC4204D11C030AD800221B0D1B0577
:1048300001264B4009D44B4003D58B4200D1824224
:10484000FFBD9942FCD19042FFBD0B43DB180343EF
:104850001343F5D0C9434918FFBD0000FF0700000E
:1048600000B5FFF7CFFF804100BDC04600B5FFF7A0
:10487000C9FF01D9002000BD012000BD00B5FFF730
:10488000B9FF01D9002000BD012000BD00B5FFF730
:10489000B1FF804100BD012040054A00121804D834
:1048A0005A00121801D800207047012070470020DC
:1048B000704700000021002805D17047C11748400B
:1048C000401AFAD0C90713B5064B1B6898470CBCB1
:1048D000441CA2401005120B0349091B090519438A
:1048E000114310BD2C0E00201F04000010B54C0019
:1048F000620D8023D218DB00D21A5B057E2A10DD00
:104900009E3A13DACC170903490819435242D140A1
:10491000640001341532202A05DAD0400843604390
:1049200010BD002010BD0846604310BDC80FC01860
:10493000013810BD18B4044B5B6AFC46019308BDF6
:1049400024DFB552001000002C0D002018B4044BD9
:104950001B6EFC46019308BD60DFC35300100000CE
:104960002C0D002018B4044BDB6FFC46019308BDEE
:104970007CDF4D53001000002C0D0020024A034B39
:1049800000B500F0F7F900BD182D4454FB21194083
:104990008A0002D3920D092A08DA18B4064BDB6BA1
:1049A000FC46019308BD3CDFF754001000B5FFF74B
:1049B000E5FF04BC9646F0E72C0D00208A0002D3E8
:1049C000920D092A08DA18B4064B1B6CFC460193B9
:1049D00008BD40DF0755001000B5FFF7CFFF04BC4E
:1049E0009646F0E72C0D002018B4044B9B6DFC4656
:1049F000019308BD58DFF555001000002C0D002074
:104A000070B513231C78012C14D0012C14DC022C5B
:104A100002DC1F4A1F4B9A641F48FFF70BFC1F4B19
:104A2000186070BD99001A481A4A885001331F2B2C
:104A3000F8D9EAE70023FAE71948FFF703FC050075
:104A40001848FFF7FFFB023803789B007F2B19DD26
:104A5000802229000F4801F03BF8022CD7D1124BDD
:104A60001A88B5231B029A4209D1104B1A88104BA1
:104A70009A4204D10F4B1A880F4B9A42C7D000209C
:104A8000FEF73CF90D4B0E4A32210E48FEF79CF81A
:104A9000854D00102C0D00204C3300002C0E002002
:104AA000534400005346000054380000D83800003A
:104AB000494600009C38000059460000E89100106B
:104AC0009492001048920010F0B5DE4657464E46CC
:104AD0004546E0B585B004000D00009201930E9BA1
:104AE0009A46002B45DD019B191101204042FFF73A
:104AF000F5FB039000239B4629E00C239946AB115C
:104B0000039A53431D224946521A134101335B1045
:104B10009846202252428B1821D422009A40170036
:104B200023004A4693401E004346D917009A019B32
:104B3000404600F069FE34003D00241A8D415B467A
:104B40004A46934043449B4653469B1A9A465346D3
:104B5000002B11DD53460C2BCFDCD146CFE72023B1
:104B60005B1A2200DA4013002A008A4017001F4314
:104B7000D6E700230393BDE7009A019BAB4209DC13
:104B800001D1A24206D8009A019BA41A9D4101239B
:104B90009C46E344009A019BAB4209DC01D1A2424E
:104BA00006D8009A019BA41A9D4101239C46E34428
:104BB000002D0FDB002D16DB0F9B002B01D05A467A
:104BC0001A602000290005B0F0BCBB46B246A946D9
:104BD000A046F0BD009A019BA4185D4101235B42F1
:104BE0009C46E344E6E7009A019BA4185D4101233B
:104BF0005B429C46E344DFE7F0B5C64600B58AB0A9
:104C000007900F0011001A00FE0F3B0D5B055B0DB6
:104C10003D032D0B80246403049025430595D50F97
:104C2000A846150D6D056D0D1203120B029114436C
:104C30000394109A002A02D0002210990A604A4A6E
:104C4000934200D17DE0002D00D17DE0002B00D10A
:104C500082E0954200D182E06A1E9A4200DD80E047
:104C600044D0002E06D0049E059F00227142BA4116
:104C70000491059209AA01925B1B0093029A039B7F
:104C800004980599FFF720FF06000F0003000C00B1
:104C90009B197C412200029803998C420BDC01D1C4
:104CA000834208D802998B420CD1039B9A4209D1C6
:104CB000099BDB0706D5029B039CF61AA741099BBB
:104CC000013309934346002B02D0099B5B420993B1
:104CD000109B002B01D0099A1A60244A521B300005
:104CE0003900FFF733FE06000F002FE0039B059904
:104CF00099420FDD002E17D1029C039D24196D41AE
:104D000004980599001BA94106000F00012309938F
:104D10001500D7E7029B039C0598A04202D1049995
:104D20009942E7D8079E11E0029E039FB6197F4182
:104D3000049B059CF61AA74101235B4209931500C9
:104D4000C0E700260A4F01E00026094F3000390075
:104D50000AB080BCB846F0BD00260027F6E7079EE3
:104D6000F4E7079EF2E7C046FF07000033040000A7
:104D70000000F07F10B582B000240094FFF73CFFE4
:104D800002B010BD07B56046002800D100BE018802
:104D90000A0A0230DF2AFAD1C9B2820804D3028893
:104DA00040880004104300E00068024A505003901D
:104DB00007BD00002C0D00200FB403BC0CBCF0B5E7
:104DC0000124E407634000E0F0B50C0DCF0F661E30
:104DD0003605891B640503D3C943404200D3013122
:104DE000640D03D0661CF60A07D0E41B00207F0088
:104DF000791C89078912803C24031D0DDF0F6E1E6C
:104E000036059B1B6D0503D3DB43524200D30133B0
:104E10006D0D03D06E1CF60A07D0ED1B00227F003B
:104E20007B1C9B079B12803D2D032F1B661B58D4B8
:104E3000A446202E46DA20371400BC401D00BD4099
:104E4000F24033412A4380185941CB0F05D0C94362
:104E5000C043002264425041514162464D0D28D169
:104E60000D0D07D100281FD0241940414941013AB6
:104E70000D0DF9D0640006D3013000D30131002CB0
:104E800001D140084000013A0BD4941CE40A04D13B
:104E900012051144DB071944F0BDD907204B194313
:104EA00000E0D9070020F0BD0029DDD1002CDBD1C6
:104EB000F0BD0132C6074008CD0728434908002E3F
:104EC000E1D0D9E73C2E29DA203E40371400BC401F
:104ED00000D00124F24014431A00BB401C43D317F6
:104EE000ACE7AC46202F08DA20360400B4400D00B1
:104EF000B540F84039412843A5E73C2F0CDA203F64
:104F000040360400B44000D00124F84004430800B7
:104F1000B1400C43C117EAE710001900002494E7E0
:104F20000000F07FF0B50C0D661E3605891BE60A01
:104F30006405640D02D0651CED0A04D00020012137
:104F40000905803C2403A4461C0D671E3F05DB1B9E
:104F5000E70A6405640D02D0651CED0A04D0002246
:104F600001231B05803C24037740644497B484B23A
:104F700096B27443070C7E43150C6F4380B26843AE
:104F8000361802D3012000043F183004350C0019F4
:104F90007D41844688B29AB250430C0C62431F0C88
:104FA0007C438EB27E43921902D301263604A419A3
:104FB0001604170C3618674101BC81B29AB25143EE
:104FC000040C62431B0C5C4380B25843121802D39A
:104FD0000120000424181004130C401863412D18FC
:104FE0005E410020474106BC88B293B258430C0C86
:104FF0006343120C544389B251435B1802D301211D
:105000000904641819041A0C091862416D185641F4
:105010000020474118BCF902720D1143F0026A0DDD
:105020001043ED020A0D03D16D1940414941013B86
:10503000124E9B1B7600B3420ED26D0007D3013097
:10504000002671416646354301D1400840001B05EA
:10505000C918E4072144F0BD0BDA013306D1013051
:1050600004D101314F0D01D04908F2E7E1070020DA
:10507000F0BD013631050020EBE70000FF03000022
:10508000F0B51C0D671E3F05DB1BE70A6405640DC8
:1050900002D0661CF60A04D0002201231B05803CC6
:1050A0002403D0252D060026F6432E661E096E66C3
:1050B000CE0FF619B44649004F0D02D07E1CF60AF9
:1050C00003D000200021403F3F033E1BB600B44404
:1050D000013F7F05C91B49082E6F013676089C02E7
:1050E000950D25437543ED137543AD1301356D10D3
:1050F000F603761B0CB4CC02450D2C43A2B2B3B21E
:105100005A43270C7B43350C6F43A4B26C431B19E5
:1051100002D3012424043F191C041D0CA4187D4152
:1051200024196D41009A91B2ACB26143170C7C43D3
:105130002B0C5F4392B25A43A41802D301221204EB
:10514000BF182204230C52187B41019C6C431B198D
:10515000520ED9010A434401A01A81B2B2B251439E
:1051600003145A43360C734387B27743D617D219C8
:1051700000277E4136049B191704160C7F185E41E8
:105180007316ED18F301002680337541A90F06D17F
:105190006400690AE8055B0A184309D22FE004227B
:1051A000944480337541A90AA8059B0A184326D365
:1051B000404149412404009A019B0D005543641B62
:1051C0004343E41A95B286B27543170C7E43030C31
:1051D0005F4392B25A43B61802D301221204BF1899
:1051E0003204330C52197B4152429C41002C02D4B0
:1051F0000022013051414008CA071043490802B05B
:105200006246D7079210084BD218084B9A4203D235
:1052100012058918C919F0BD0020002A01DC3900E7
:10522000F0BD01331905F5E7FD030000FE0700009E
:10523000624618CA94465A46002A20DB04E06246B9
:1052400018CA944600291ADAC01861415B463B41EE
:105250005C46B4405246FA40224344464D466241C1
:105260006B41904699462B46B3403D41FC401C4360
:1052700052465B46A241AB4192469B467047C01ADC
:10528000A1414B463B414C46B4404246FA40224382
:1052900054465D4662416B4192469B462B46B34065
:1052A0003D41FC401C4342464B46A241AB41904627
:1052B00099467047002200B5203200F010F808002F
:1052C00000BD002200B500F00CF8CA179A4200D1C8
:1052D00000BDD8430121C907414000BD00220B1584
:1052E0000AD410B5944600F0A7F81414013400DA7B
:1052F0000021CB17144C2047002000217047624446
:10530000343A0CD40C2A07DA0400914090405242FF
:105310002032D440214310BDD843D94310BD2032A0
:1053200007D40C469440524220321141D0402043D1
:1053300010BD0800C917203203D452422032104158
:1053400010BD1800190010BDFF5200104A00520D88
:10535000144BD21A13DDFF2A1EDAD205CB0FDB075E
:105360001A43C300400F0903490A084310435B0076
:1053700001D301D0013070474308FBD2704702D0FF
:10538000C80FC00770470A0312130132F8D1420F49
:10539000072AF5D1012200E0FF22C80F0002801881
:1053A000C00570478003000000210A00002104E0CE
:1053B00000210A00C11704E00022002306E0C046D5
:1053C0000022CB1758405940C01A994130B5184CAB
:1053D000A21A002903D1010010D00020203A4C1558
:1053E00012D104D2013A001849414C0DFAD3114CA4
:1053F000A24204D212058918DB07C91830BDD24376
:10540000520D00200021F5E703D4013A001849416C
:10541000FBD50B324405C00A4D052843C90A640078
:1054200003D0002460416141E1E7E0D34408F8E79C
:1054300032040000FE0700000A0DCC0F531E1B05AE
:10544000C91A520503D3C943404200D30131520D5A
:1054500003D0531CDB0A07D0121B00206400611C20
:1054600089078912803A1203014BD21A7047000053
:10547000FF030000023225D40C2A1CDA1125AD1AD4
:105480000B002B41083207350600EE40904091405A
:105490003143F0CC63431A1500235A415543564318
:1054A0005743BF02F412760576196741ED177F194D
:1054B000801BB94170470C220020C91749000131F7
:1054C0000905DBE70902030E1943000253422032AB
:1054D00008D40C0019419440D84020430022504188
:1054E000514170470800C917203B2032F1D50020F8
:1054F000002100227047F0B5FFF730F900F00EF8F8
:1055000000F030F806E0F0B5FFF728F900F006F8F3
:1055100000F046F8FFF728F9F0BD000000B5FFF7EE
:105520008BFF30A4FFF7A6FF00242C4D2C4ED20792
:1055300002D3F6436D426641520004D2A246A3460E
:10554000A846B14603E0A046A146AA46B3466EA4CB
:10555000A44601271F26FFF772FE0137013E212FC7
:10556000F9D100BD594684B28DB26C43061475431F
:105570000B145E4382B25A43AD18EA1700D7D243E8
:105580001204B6182A042B0C1219734140464946DE
:105590009D009B17920F2A43904199413E2210E7AC
:1055A000494684B28DB26C43061475430B145E43B6
:1055B00082B25A43AD18EA1700D7D2431204B61884
:1055C0002A042B0C12197341504659469D009B1713
:1055D000920F2A43504159413E22F2E6BB4DF09DC5
:1055E000C556F6367D5100001A61140085880A0000
:1055F000FB211900F0B5FFF7B1F8404D0C002C402D
:1056000001D0AC4202D1090D090500201C002C403C
:1056100001D0AC4202D11B0D1B0500220026ED0279
:10562000002B04D502266B40694000D476424F1906
:1056300004D599420CDD0136694003E0BB4207DA2C
:10564000013E6B40070010003A000F0019003B00BC
:1056500040B4002A0FD1002B0AD05C00641501343D
:1056600009D14C006415013402D10139013B02E03B
:10567000002000212EE0FFF703FD3E22FFF722FE6F
:1056800082468B46002000218046012292079146E7
:105690001DA4A44601271F26FFF7CAFD0137013EBE
:1056A000212FF9D14A4653460C3A012464070027BA
:1056B00052081B0005D49341001979416408F7D1C1
:1056C00004E05341001BB9416408F1D1CE074910F1
:1056D0004008304340BC002E0AD0094C094D01D58A
:1056E000E443ED43F60701D100196941001969410E
:1056F0003D22FFF766FEFFF737F8F0BD0000F07FB0
:105700008D305A88A8F64332694FBB610567AC1DDE
:10571000B16E4096FCBAAD0F72DB0BABA66EF5070F
:1057200039BD9FE576ABFE034B6297BA5BD5FF01AF
:10573000D694DBDDAAFAFF005DEAEE5655FF7F0046
:105740006E77B7AAEAFF3F00BCBB5555FDFF1F00AF
:10575000DEADAAAAFFFF0F006F5555F5FFFF07004A
:10576000ABAAAAFEFFFF03005555D5FFFFFF0100BE
:10577000ABAAFAFFFFFF00005555FFFFFF7F0000B7
:10578000ABEAFFFFFF3F000055FDFFFFFF1F0000DA
:10579000ABFFFFFFFF0F0000F5FFFFFFFF0700005B
:1057A000FFFFFFFFFF0300000000000000020000F9
:1057B0000000000000010000000000008000000068
:1057C0000000000040000000000000002000000079
:1057D00000000000100000000000000008000000B1
:1057E00000000000040000000000000002000000B3
:1057F0000000000001000000000000800000000028
:10580000000000400000000051434343C9188C468B
:10581000110C83B24B4310B4040C614392B280B2BA
:10582000504362431C041B0C001910BC5941130463
:10583000120CC0185141614470470000484041407B
:10584000484000239C46114B5B68184700239C4648
:105850000E4B1B6818470E4A936F9B0804D2002317
:105860009C460A4BDB681847F0B5146E556E576FAF
:10587000166FFFF7F4FF064A1466556657671667FA
:10588000F0BD00239C46014B9B681847300E00205A
:10589000000000D007B548404140484001E0C04604
:1058A00007B54200120E03D0FF2A03D1420218D8D6
:1058B000C00DC0054A00120E03D0FF2A03D14A02D0
:1058C0000FD8C90DC9050122414005D4414001D579
:1058D000814207BD884207BD0143491801D0C0433A
:1058E000001807BD00B5FFF7DBFF01D0002000BDA9
:1058F000012000BD00B5FFF7D3FF804100BDC046C9
:1059000000B5FFF7C7FF804100BD000000239C46A3
:10591000014B5B6A18470000300E0020034BDB6F21
:10592000FC4618477CDF615A00100000300E002052
:1059300070B513231D782A48FEF784FC0400012D5E
:1059400011D0012D09DDA31E1B789B007F2B40DDAC
:1059500080222100234800F0BBF82348FEF76AFCB0
:10596000224B186070BD542201001E4800F0B0F8B0
:105970001F4B1A881F4B9A421CD1A7239B011A88E0
:105980001D4B9A4216D11D4B1A881D4B9A4211D1BC
:105990001C4B1A8894239B019A420BD11A4B1A88EC
:1059A0001A4B9A4206D11A4B1A681A4B9A4201D1E5
:1059B000152307E01848FDF7A1F999001748094A8F
:1059C000885001331F2BF8D9144A064B1A62DA614A
:1059D000B7E7134B134A42211348FDF7F5F8C046C9
:1059E00053460000300E00204C3300002C0E0020E7
:1059F000EE290000C40F0000C20D0000962B00002D
:105A0000C0B50000182B0000CC2A000010B5000023
:105A1000FC2C000051ED8764688400102D5A0010A2
:105A2000A892001028930010DC92001007B5604681
:105A3000002800D100BE01880A0A0230DF2AFAD10C
:105A4000C9B2820804D3028840880004104300E0F1
:105A50000068024A5050039007BD0000300E00203D
:105A6000C30FDB0741000A0E07D0FF2A08D009093F
:105A7000054A8918194340077047190000207047EC
:105A80000249C918FAE70000000000380000F07F62
:105A900010B5040000F06CFA002804D00419034B80
:105AA0009C4200D810BD0248FDF728F900000420F0
:105AB0003C93001001480421014B1847A00200202C
:105AC00055420010014B1B6818470000A00200203F
:105AD000014B5B6818470000A002002010B50300CE
